{
  "contractName": "AthleteFactory",
  "abi": [
    {
      "constant": true,
      "inputs": [
        {
          "name": "",
          "type": "uint256"
        }
      ],
      "name": "athleteToOwner",
      "outputs": [
        {
          "name": "",
          "type": "address"
        }
      ],
      "payable": false,
      "stateMutability": "view",
      "type": "function"
    },
    {
      "constant": true,
      "inputs": [],
      "name": "owner",
      "outputs": [
        {
          "name": "",
          "type": "address"
        }
      ],
      "payable": false,
      "stateMutability": "view",
      "type": "function"
    },
    {
      "constant": true,
      "inputs": [
        {
          "name": "",
          "type": "address"
        }
      ],
      "name": "ownerAthleteCount",
      "outputs": [
        {
          "name": "",
          "type": "uint256"
        }
      ],
      "payable": false,
      "stateMutability": "view",
      "type": "function"
    },
    {
      "constant": true,
      "inputs": [
        {
          "name": "",
          "type": "uint256"
        }
      ],
      "name": "athletes",
      "outputs": [
        {
          "name": "name",
          "type": "string"
        },
        {
          "name": "dna",
          "type": "uint256"
        },
        {
          "name": "level",
          "type": "uint32"
        },
        {
          "name": "readyTime",
          "type": "uint32"
        },
        {
          "name": "winCount",
          "type": "uint16"
        },
        {
          "name": "lossCount",
          "type": "uint16"
        },
        {
          "name": "offensiveRating",
          "type": "uint16"
        },
        {
          "name": "defensiveRating",
          "type": "uint16"
        }
      ],
      "payable": false,
      "stateMutability": "view",
      "type": "function"
    },
    {
      "constant": false,
      "inputs": [
        {
          "name": "newOwner",
          "type": "address"
        }
      ],
      "name": "transferOwnership",
      "outputs": [],
      "payable": false,
      "stateMutability": "nonpayable",
      "type": "function"
    },
    {
      "anonymous": false,
      "inputs": [
        {
          "indexed": false,
          "name": "athleteId",
          "type": "uint256"
        },
        {
          "indexed": false,
          "name": "name",
          "type": "string"
        },
        {
          "indexed": false,
          "name": "dna",
          "type": "uint256"
        }
      ],
      "name": "NewAthlete",
      "type": "event"
    },
    {
      "anonymous": false,
      "inputs": [
        {
          "indexed": true,
          "name": "previousOwner",
          "type": "address"
        },
        {
          "indexed": true,
          "name": "newOwner",
          "type": "address"
        }
      ],
      "name": "OwnershipTransferred",
      "type": "event"
    },
    {
      "constant": false,
      "inputs": [
        {
          "name": "_name",
          "type": "string"
        }
      ],
      "name": "createRandomAthlete",
      "outputs": [],
      "payable": false,
      "stateMutability": "nonpayable",
      "type": "function"
    },
    {
      "constant": false,
      "inputs": [
        {
          "name": "_name",
          "type": "string"
        },
        {
          "name": "_name2",
          "type": "string"
        }
      ],
      "name": "buyPackAthletes",
      "outputs": [],
      "payable": true,
      "stateMutability": "payable",
      "type": "function"
    }
  ],
  "bytecode": "0x60606040526010600155600154600a0a6002556201518060035567011c37937e080000600455336000806101000a81548173ffffffffffffffffffffffffffffffffffffffff021916908373ffffffffffffffffffffffffffffffffffffffff160217905550610d02806100746000396000f300606060405260043610610083576000357c0100000000000000000000000000000000000000000000000000000000900463ffffffff16806322a1bf65146100885780638da5cb5b146100eb578063b2cb246614610140578063dfe242b11461019d578063e2acabfd146101d4578063edef8b8314610221578063f2fde38b14610343575b600080fd5b341561009357600080fd5b6100a9600480803590602001909190505061037c565b604051808273ffffffffffffffffffffffffffffffffffffffff1673ffffffffffffffffffffffffffffffffffffffff16815260200191505060405180910390f35b34156100f657600080fd5b6100fe6103af565b604051808273ffffffffffffffffffffffffffffffffffffffff1673ffffffffffffffffffffffffffffffffffffffff16815260200191505060405180910390f35b341561014b57600080fd5b61019b600480803590602001908201803590602001908080601f016020809104026020016040519081016040528093929190818152602001838380828437820191505050505050919050506103d4565b005b6101d260048080359060200190820180359060200191909192908035906020019082018035906020019190919290505061044d565b005b34156101df57600080fd5b61020b600480803573ffffffffffffffffffffffffffffffffffffffff1690602001909190505061057c565b6040518082815260200191505060405180910390f35b341561022c57600080fd5b6102426004808035906020019091905050610594565b60405180806020018981526020018863ffffffff1663ffffffff1681526020018763ffffffff1663ffffffff1681526020018661ffff1661ffff1681526020018561ffff1661ffff1681526020018461ffff1661ffff1681526020018361ffff1661ffff16815260200182810382528a81815460018160011615610100020316600290048152602001915080546001816001161561010002031660029004801561032d5780601f106103025761010080835404028352916020019161032d565b820191906000526020600020905b81548152906001019060200180831161031057829003601f168201915b5050995050505050505050505060405180910390f35b341561034e57600080fd5b61037a600480803573ffffffffffffffffffffffffffffffffffffffff16906020019091905050610642565b005b60066020528060005260406000206000915054906101000a900473ffffffffffffffffffffffffffffffffffffffff1681565b6000809054906101000a900473ffffffffffffffffffffffffffffffffffffffff1681565b600080600760003373ffffffffffffffffffffffffffffffffffffffff1673ffffffffffffffffffffffffffffffffffffffff1681526020019081526020016000205414151561042357600080fd5b61042c82610797565b905060648181151561043a57fe5b06810390506104498282610819565b5050565b6000806004543414151561046057600080fd5b61049b86868080601f016020809104026020016040519081016040528093929190818152602001838380828437820191505050505050610797565b91506064828115156104a957fe5b06820391506104ea86868080601f01602080910402602001604051908101604052809392919081815260200183838082843782019150505050505083610819565b61052584848080601f016020809104026020016040519081016040528093929190818152602001838380828437820191505050505050610797565b905060648181151561053357fe5b068103905061057484848080601f01602080910402602001604051908101604052809392919081815260200183838082843782019150505050505082610819565b505050505050565b60076020528060005260406000206000915090505481565b6005818154811015156105a357fe5b906000526020600020906003020160009150905080600001908060010154908060020160009054906101000a900463ffffffff16908060020160049054906101000a900463ffffffff16908060020160089054906101000a900461ffff169080600201600a9054906101000a900461ffff169080600201600c9054906101000a900461ffff169080600201600e9054906101000a900461ffff16905088565b6000809054906101000a900473ffffffffffffffffffffffffffffffffffffffff1673ffffffffffffffffffffffffffffffffffffffff163373ffffffffffffffffffffffffffffffffffffffff1614151561069d57600080fd5b600073ffffffffffffffffffffffffffffffffffffffff168173ffffffffffffffffffffffffffffffffffffffff16141515156106d957600080fd5b8073ffffffffffffffffffffffffffffffffffffffff166000809054906101000a900473ffffffffffffffffffffffffffffffffffffffff1673ffffffffffffffffffffffffffffffffffffffff167f8be0079c531659141344cd1fd0a4f28419497f9722a3daafe3b4186f6b6457e060405160405180910390a3806000806101000a81548173ffffffffffffffffffffffffffffffffffffffff021916908373ffffffffffffffffffffffffffffffffffffffff16021790555050565b600080826040518082805190602001908083835b6020831015156107d057805182526020820191506020810190506020830392506107ab565b6001836020036101000a03801982511681845116808217855250505050505090500191505060405180910390206001900490506002548181151561081057fe5b06915050919050565b60006001600580548060010182816108319190610afe565b9160005260206000209060030201600061010060405190810160405280888152602001878152602001600163ffffffff168152602001600354420163ffffffff168152602001600061ffff168152602001600061ffff168152602001603261ffff168152602001601e61ffff16815250909190915060008201518160000190805190602001906108c2929190610b30565b506020820151816001015560408201518160020160006101000a81548163ffffffff021916908363ffffffff16021790555060608201518160020160046101000a81548163ffffffff021916908363ffffffff16021790555060808201518160020160086101000a81548161ffff021916908361ffff16021790555060a082015181600201600a6101000a81548161ffff021916908361ffff16021790555060c082015181600201600c6101000a81548161ffff021916908361ffff16021790555060e082015181600201600e6101000a81548161ffff021916908361ffff1602179055505050039050336006600083815260200190815260200160002060006101000a81548173ffffffffffffffffffffffffffffffffffffffff021916908373ffffffffffffffffffffffffffffffffffffffff160217905550600760003373ffffffffffffffffffffffffffffffffffffffff1673ffffffffffffffffffffffffffffffffffffffff168152602001908152602001600020600081548092919060010191905055507f071c0343a2fb36c7d7178d42917b7a919b8098773661711cb31bb4255c26ec838184846040518084815260200180602001838152602001828103825284818151815260200191508051906020019080838360005b83811015610abd578082015181840152602081019050610aa2565b50505050905090810190601f168015610aea5780820380516001836020036101000a031916815260200191505b5094505050505060405180910390a1505050565b815481835581811511610b2b57600302816003028360005260206000209182019101610b2a9190610bb0565b5b505050565b828054600181600116156101000203166002900490600052602060002090601f016020900481019282601f10610b7157805160ff1916838001178555610b9f565b82800160010185558215610b9f579182015b82811115610b9e578251825591602001919060010190610b83565b5b509050610bac9190610c69565b5090565b610c6691905b80821115610c625760008082016000610bcf9190610c8e565b60018201600090556002820160006101000a81549063ffffffff02191690556002820160046101000a81549063ffffffff02191690556002820160086101000a81549061ffff021916905560028201600a6101000a81549061ffff021916905560028201600c6101000a81549061ffff021916905560028201600e6101000a81549061ffff021916905550600301610bb6565b5090565b90565b610c8b91905b80821115610c87576000816000905550600101610c6f565b5090565b90565b50805460018160011615610100020316600290046000825580601f10610cb45750610cd3565b601f016020900490600052602060002090810190610cd29190610c69565b5b505600a165627a7a723058207bbb7a83c607e4ad58bc2a2dedd25f9896aa2016710e7dea10ced784fde5990b0029",
  "source": "pragma solidity ^0.4.19;\n\nimport \"./ownable.sol\";\nimport \"./safemath.sol\";\n\ncontract AthleteFactory is Ownable {\n\n  using SafeMath for uint256;\n\n  event NewAthlete(uint athleteId, string name, uint dna);\n\n  uint dnaDigits = 16;\n  uint dnaModulus = 10 ** dnaDigits;\n  uint cooldownTime = 1 days;\n\n  uint packPrice = 0.08 ether;\n\n\n  struct Athlete {\n    string name;\n    uint dna;\n    uint32 level;\n    uint32 readyTime;\n    uint16 winCount;\n    uint16 lossCount;\n\n    //everyone is default offensiveRating of 70\n    uint16 offensiveRating;\n    //everyone has a default defensiveRating of 70\n    uint16 defensiveRating;\n  }\n\n  Athlete[] public athletes;\n\n  mapping (uint => address) public athleteToOwner;\n  mapping (address => uint) public ownerAthleteCount;\n\n  function _createAthlete(string _name, uint _dna) internal {\n    uint id = athletes.push(Athlete(_name, _dna, 1, uint32(now + cooldownTime), 0, 0, 50, 30)) - 1;\n    athleteToOwner[id] = msg.sender;\n    ownerAthleteCount[msg.sender]++;\n    NewAthlete(id, _name, _dna);\n  }\n\n  function _generateRandomDna(string _str) private view returns (uint) {\n    uint rand = uint(keccak256(_str));\n    return rand % dnaModulus;\n  }\n\n  function createRandomAthlete(string _name) public {\n    require(ownerAthleteCount[msg.sender] == 0);\n    uint randDna = _generateRandomDna(_name);\n    randDna = randDna - randDna % 100;\n    _createAthlete(_name, randDna);\n  }\n\n  function buyPackAthletes(string _name, string _name2) external payable {\n    require(msg.value == packPrice);\n    uint randDna = _generateRandomDna(_name);\n    randDna = randDna - randDna % 100;\n    _createAthlete(_name, randDna);\n\n    uint randDna2 = _generateRandomDna(_name2);\n    randDna2 = randDna2 - randDna2 % 100;\n    _createAthlete(_name2, randDna2);\n  }\n\n}\n",
  "sourcePath": "/Users/danieltrinh/Desktop/BitFantasy/EAS499Development/cryptoathletes/contracts/athletefactory.sol",
  "compiler": {
    "name": "solc",
    "version": "0.4.19+commit.c4cbbb05.Emscripten.clang"
  },
  "schemaVersion": "2.0.0",
  "updatedAt": "2018-04-25T02:19:35.335Z"
}