{
  "contractName": "AthleteOwnership",
  "abi": [
    {
      "constant": true,
      "inputs": [
        {
          "name": "_athleteId",
          "type": "uint256"
        }
      ],
      "name": "level",
      "outputs": [
        {
          "name": "",
          "type": "uint256"
        }
      ],
      "payable": false,
      "stateMutability": "view",
      "type": "function"
    },
    {
      "constant": false,
      "inputs": [
        {
          "name": "_athleteId",
          "type": "uint256"
        }
      ],
      "name": "levelUp",
      "outputs": [],
      "payable": true,
      "stateMutability": "payable",
      "type": "function"
    },
    {
      "constant": false,
      "inputs": [
        {
          "name": "_athleteId",
          "type": "uint256"
        },
        {
          "name": "_kittyId",
          "type": "uint256"
        }
      ],
      "name": "feedOnKitty",
      "outputs": [],
      "payable": false,
      "stateMutability": "nonpayable",
      "type": "function"
    },
    {
      "constant": true,
      "inputs": [
        {
          "name": "_athleteId",
          "type": "uint256"
        }
      ],
      "name": "winCount",
      "outputs": [
        {
          "name": "",
          "type": "uint256"
        }
      ],
      "payable": false,
      "stateMutability": "view",
      "type": "function"
    },
    {
      "constant": true,
      "inputs": [
        {
          "name": "",
          "type": "uint256"
        }
      ],
      "name": "athleteToOwner",
      "outputs": [
        {
          "name": "",
          "type": "address"
        }
      ],
      "payable": false,
      "stateMutability": "view",
      "type": "function"
    },
    {
      "constant": true,
      "inputs": [
        {
          "name": "_athleteId",
          "type": "uint256"
        }
      ],
      "name": "lossCount",
      "outputs": [
        {
          "name": "",
          "type": "uint256"
        }
      ],
      "payable": false,
      "stateMutability": "view",
      "type": "function"
    },
    {
      "constant": false,
      "inputs": [],
      "name": "withdraw",
      "outputs": [],
      "payable": false,
      "stateMutability": "nonpayable",
      "type": "function"
    },
    {
      "constant": true,
      "inputs": [
        {
          "name": "_athleteId",
          "type": "uint256"
        }
      ],
      "name": "getDefRating",
      "outputs": [
        {
          "name": "",
          "type": "uint16"
        }
      ],
      "payable": false,
      "stateMutability": "view",
      "type": "function"
    },
    {
      "constant": false,
      "inputs": [
        {
          "name": "_address",
          "type": "address"
        }
      ],
      "name": "setKittyContractAddress",
      "outputs": [],
      "payable": false,
      "stateMutability": "nonpayable",
      "type": "function"
    },
    {
      "constant": false,
      "inputs": [
        {
          "name": "_athleteId",
          "type": "uint256"
        },
        {
          "name": "_newDna",
          "type": "uint256"
        }
      ],
      "name": "changeDna",
      "outputs": [],
      "payable": false,
      "stateMutability": "nonpayable",
      "type": "function"
    },
    {
      "constant": true,
      "inputs": [
        {
          "name": "_athleteId",
          "type": "uint256"
        }
      ],
      "name": "getName",
      "outputs": [
        {
          "name": "",
          "type": "string"
        }
      ],
      "payable": false,
      "stateMutability": "view",
      "type": "function"
    },
    {
      "constant": true,
      "inputs": [],
      "name": "owner",
      "outputs": [
        {
          "name": "",
          "type": "address"
        }
      ],
      "payable": false,
      "stateMutability": "view",
      "type": "function"
    },
    {
      "constant": true,
      "inputs": [
        {
          "name": "_athleteId",
          "type": "uint256"
        }
      ],
      "name": "getOffRating",
      "outputs": [
        {
          "name": "",
          "type": "uint16"
        }
      ],
      "payable": false,
      "stateMutability": "view",
      "type": "function"
    },
    {
      "constant": true,
      "inputs": [
        {
          "name": "_owner",
          "type": "address"
        }
      ],
      "name": "getAthletesByOwner",
      "outputs": [
        {
          "name": "",
          "type": "uint256[]"
        }
      ],
      "payable": false,
      "stateMutability": "view",
      "type": "function"
    },
    {
      "constant": false,
      "inputs": [
        {
          "name": "_name",
          "type": "string"
        }
      ],
      "name": "createRandomAthlete",
      "outputs": [],
      "payable": false,
      "stateMutability": "nonpayable",
      "type": "function"
    },
    {
      "constant": false,
      "inputs": [
        {
          "name": "_athleteId",
          "type": "uint256"
        },
        {
          "name": "_newName",
          "type": "string"
        }
      ],
      "name": "changeName",
      "outputs": [],
      "payable": false,
      "stateMutability": "nonpayable",
      "type": "function"
    },
    {
      "constant": false,
      "inputs": [
        {
          "name": "_fee",
          "type": "uint256"
        }
      ],
      "name": "setLevelUpFee",
      "outputs": [],
      "payable": false,
      "stateMutability": "nonpayable",
      "type": "function"
    },
    {
      "constant": false,
      "inputs": [
        {
          "name": "_name",
          "type": "string"
        },
        {
          "name": "_name2",
          "type": "string"
        }
      ],
      "name": "buyPackAthletes",
      "outputs": [],
      "payable": true,
      "stateMutability": "payable",
      "type": "function"
    },
    {
      "constant": false,
      "inputs": [
        {
          "name": "_athleteId",
          "type": "uint256"
        },
        {
          "name": "_targetId",
          "type": "uint256"
        }
      ],
      "name": "attack",
      "outputs": [],
      "payable": false,
      "stateMutability": "nonpayable",
      "type": "function"
    },
    {
      "constant": true,
      "inputs": [
        {
          "name": "",
          "type": "address"
        }
      ],
      "name": "ownerAthleteCount",
      "outputs": [
        {
          "name": "",
          "type": "uint256"
        }
      ],
      "payable": false,
      "stateMutability": "view",
      "type": "function"
    },
    {
      "constant": true,
      "inputs": [
        {
          "name": "",
          "type": "uint256"
        }
      ],
      "name": "athletes",
      "outputs": [
        {
          "name": "name",
          "type": "string"
        },
        {
          "name": "dna",
          "type": "uint256"
        },
        {
          "name": "level",
          "type": "uint32"
        },
        {
          "name": "readyTime",
          "type": "uint32"
        },
        {
          "name": "winCount",
          "type": "uint16"
        },
        {
          "name": "lossCount",
          "type": "uint16"
        },
        {
          "name": "offensiveRating",
          "type": "uint16"
        },
        {
          "name": "defensiveRating",
          "type": "uint16"
        }
      ],
      "payable": false,
      "stateMutability": "view",
      "type": "function"
    },
    {
      "constant": false,
      "inputs": [
        {
          "name": "newOwner",
          "type": "address"
        }
      ],
      "name": "transferOwnership",
      "outputs": [],
      "payable": false,
      "stateMutability": "nonpayable",
      "type": "function"
    },
    {
      "anonymous": false,
      "inputs": [
        {
          "indexed": true,
          "name": "_from",
          "type": "address"
        },
        {
          "indexed": true,
          "name": "_to",
          "type": "address"
        },
        {
          "indexed": false,
          "name": "_tokenId",
          "type": "uint256"
        }
      ],
      "name": "Transfer",
      "type": "event"
    },
    {
      "anonymous": false,
      "inputs": [
        {
          "indexed": true,
          "name": "_owner",
          "type": "address"
        },
        {
          "indexed": true,
          "name": "_approved",
          "type": "address"
        },
        {
          "indexed": false,
          "name": "_tokenId",
          "type": "uint256"
        }
      ],
      "name": "Approval",
      "type": "event"
    },
    {
      "anonymous": false,
      "inputs": [
        {
          "indexed": false,
          "name": "athleteId",
          "type": "uint256"
        },
        {
          "indexed": false,
          "name": "name",
          "type": "string"
        },
        {
          "indexed": false,
          "name": "dna",
          "type": "uint256"
        }
      ],
      "name": "NewAthlete",
      "type": "event"
    },
    {
      "anonymous": false,
      "inputs": [
        {
          "indexed": true,
          "name": "previousOwner",
          "type": "address"
        },
        {
          "indexed": true,
          "name": "newOwner",
          "type": "address"
        }
      ],
      "name": "OwnershipTransferred",
      "type": "event"
    },
    {
      "constant": true,
      "inputs": [
        {
          "name": "_owner",
          "type": "address"
        }
      ],
      "name": "balanceOf",
      "outputs": [
        {
          "name": "_balance",
          "type": "uint256"
        }
      ],
      "payable": false,
      "stateMutability": "view",
      "type": "function"
    },
    {
      "constant": true,
      "inputs": [
        {
          "name": "_tokenId",
          "type": "uint256"
        }
      ],
      "name": "ownerOf",
      "outputs": [
        {
          "name": "_owner",
          "type": "address"
        }
      ],
      "payable": false,
      "stateMutability": "view",
      "type": "function"
    },
    {
      "constant": false,
      "inputs": [
        {
          "name": "_to",
          "type": "address"
        },
        {
          "name": "_tokenId",
          "type": "uint256"
        }
      ],
      "name": "transfer",
      "outputs": [],
      "payable": false,
      "stateMutability": "nonpayable",
      "type": "function"
    },
    {
      "constant": false,
      "inputs": [
        {
          "name": "_to",
          "type": "address"
        },
        {
          "name": "_tokenId",
          "type": "uint256"
        }
      ],
      "name": "approve",
      "outputs": [],
      "payable": false,
      "stateMutability": "nonpayable",
      "type": "function"
    },
    {
      "constant": false,
      "inputs": [
        {
          "name": "_tokenId",
          "type": "uint256"
        }
      ],
      "name": "takeOwnership",
      "outputs": [],
      "payable": false,
      "stateMutability": "nonpayable",
      "type": "function"
    }
  ],
  "bytecode": "0x60606040526010600155600154600a0a6002556201518060035567011c37937e08000060045566038d7ea4c680006009556000600a55601e600b55336000806101000a81548173ffffffffffffffffffffffffffffffffffffffff021916908373ffffffffffffffffffffffffffffffffffffffff1602179055506126cc806100896000396000f30060606040526004361061015f576000357c0100000000000000000000000000000000000000000000000000000000900463ffffffff16806305c58df214610164578063095ea7b31461019b5780630ce90ec2146101dd57806317a7f4cc146101f557806320933daf1461022157806322a1bf65146102585780633b5772ee146102bb5780633ccfd60b146102f25780635bd30e02146103075780635f4623f1146103465780635faf28801461037f5780636352211e146103ab5780636b8ff5741461040e57806370a08231146104aa5780638da5cb5b146104f757806390bc73481461054c5780639e1d94231461058b578063a9059cbb14610619578063b2cb24661461065b578063b2e6ceeb146106b8578063c39cbef1146106db578063ccf670f814610712578063dfe242b114610735578063e1fa76381461076c578063e2acabfd14610798578063edef8b83146107e5578063f2fde38b14610907575b600080fd5b341561016f57600080fd5b6101856004808035906020019091905050610940565b6040518082815260200191505060405180910390f35b34156101a657600080fd5b6101db600480803573ffffffffffffffffffffffffffffffffffffffff16906020019091908035906020019091905050610985565b005b6101f36004808035906020019091905050610aaf565b005b341561020057600080fd5b61021f6004808035906020019091908035906020019091905050610b1b565b005b341561022c57600080fd5b6102426004808035906020019091905050610c88565b6040518082815260200191505060405180910390f35b341561026357600080fd5b6102796004808035906020019091905050610cc9565b604051808273ffffffffffffffffffffffffffffffffffffffff1673ffffffffffffffffffffffffffffffffffffffff16815260200191505060405180910390f35b34156102c657600080fd5b6102dc6004808035906020019091905050610cfc565b6040518082815260200191505060405180910390f35b34156102fd57600080fd5b610305610d3d565b005b341561031257600080fd5b6103286004808035906020019091905050610e12565b604051808261ffff1661ffff16815260200191505060405180910390f35b341561035157600080fd5b61037d600480803573ffffffffffffffffffffffffffffffffffffffff16906020019091905050610e4f565b005b341561038a57600080fd5b6103a96004808035906020019091908035906020019091905050610eee565b005b34156103b657600080fd5b6103cc6004808035906020019091905050610fd0565b604051808273ffffffffffffffffffffffffffffffffffffffff1673ffffffffffffffffffffffffffffffffffffffff16815260200191505060405180910390f35b341561041957600080fd5b61042f600480803590602001909190505061100d565b6040518080602001828103825283818151815260200191508051906020019080838360005b8381101561046f578082015181840152602081019050610454565b50505050905090810190601f16801561049c5780820380516001836020036101000a031916815260200191505b509250505060405180910390f35b34156104b557600080fd5b6104e1600480803573ffffffffffffffffffffffffffffffffffffffff169060200190919050506110db565b6040518082815260200191505060405180910390f35b341561050257600080fd5b61050a611124565b604051808273ffffffffffffffffffffffffffffffffffffffff1673ffffffffffffffffffffffffffffffffffffffff16815260200191505060405180910390f35b341561055757600080fd5b61056d6004808035906020019091905050611149565b604051808261ffff1661ffff16815260200191505060405180910390f35b341561059657600080fd5b6105c2600480803573ffffffffffffffffffffffffffffffffffffffff16906020019091905050611186565b6040518080602001828103825283818151815260200191508051906020019060200280838360005b838110156106055780820151818401526020810190506105ea565b505050509050019250505060405180910390f35b341561062457600080fd5b610659600480803573ffffffffffffffffffffffffffffffffffffffff169060200190919080359060200190919050506112b4565b005b341561066657600080fd5b6106b6600480803590602001908201803590602001908080601f01602080910402602001604051908101604052809392919081815260200183838082843782019150505050505091905050611332565b005b34156106c357600080fd5b6106d960048080359060200190919050506113ab565b005b34156106e657600080fd5b61071060048080359060200190919080359060200190820180359060200191909192905050611434565b005b341561071d57600080fd5b6107336004808035906020019091905050611522565b005b61076a600480803590602001908201803590602001919091929080359060200190820180359060200191909192905050611587565b005b341561077757600080fd5b61079660048080359060200190919080359060200190919050506116b6565b005b34156107a357600080fd5b6107cf600480803573ffffffffffffffffffffffffffffffffffffffff169060200190919050506119cc565b6040518082815260200191505060405180910390f35b34156107f057600080fd5b61080660048080359060200190919050506119e4565b60405180806020018981526020018863ffffffff1663ffffffff1681526020018763ffffffff1663ffffffff1681526020018661ffff1661ffff1681526020018561ffff1661ffff1681526020018461ffff1661ffff1681526020018361ffff1661ffff16815260200182810382528a8181546001816001161561010002031660029004815260200191508054600181600116156101000203166002900480156108f15780601f106108c6576101008083540402835291602001916108f1565b820191906000526020600020905b8154815290600101906020018083116108d457829003601f168201915b5050995050505050505050505060405180910390f35b341561091257600080fd5b61093e600480803573ffffffffffffffffffffffffffffffffffffffff16906020019091905050611a92565b005b60008060058381548110151561095257fe5b906000526020600020906003020190508060020160009054906101000a900463ffffffff1663ffffffff16915050919050565b806006600082815260200190815260200160002060009054906101000a900473ffffffffffffffffffffffffffffffffffffffff1673ffffffffffffffffffffffffffffffffffffffff163373ffffffffffffffffffffffffffffffffffffffff161415156109f357600080fd5b82600c600084815260200190815260200160002060006101000a81548173ffffffffffffffffffffffffffffffffffffffff021916908373ffffffffffffffffffffffffffffffffffffffff1602179055508273ffffffffffffffffffffffffffffffffffffffff163373ffffffffffffffffffffffffffffffffffffffff167f8c5be1e5ebec7d5bd14f71427d1e84f3dd0314c0f7b2291e5b200ac8c7c3b925846040518082815260200191505060405180910390a3505050565b60095434141515610abf57600080fd5b600581815481101515610ace57fe5b9060005260206000209060030201600201600081819054906101000a900463ffffffff168092919060010191906101000a81548163ffffffff021916908363ffffffff1602179055505050565b6000600860009054906101000a900473ffffffffffffffffffffffffffffffffffffffff1673ffffffffffffffffffffffffffffffffffffffff1663e98b7f4d83600060405161014001526040518263ffffffff167c01000000000000000000000000000000000000000000000000000000000281526004018082815260200191505061014060405180830381600087803b1515610bb857600080fd5b6102c65a03f11515610bc957600080fd5b5050506040518051906020018051906020018051906020018051906020018051906020018051906020018051906020018051906020018051906020018051905090919293949596979850909192939495969750909192939495965090919293949550909192939450909192935090919250909150905080915050610c8383826040805190810160405280600581526020017f6b69747479000000000000000000000000000000000000000000000000000000815250611be7565b505050565b600080600583815481101515610c9a57fe5b906000526020600020906003020190508060020160089054906101000a900461ffff1661ffff16915050919050565b60066020528060005260406000206000915054906101000a900473ffffffffffffffffffffffffffffffffffffffff1681565b600080600583815481101515610d0e57fe5b9060005260206000209060030201905080600201600a9054906101000a900461ffff1661ffff16915050919050565b6000809054906101000a900473ffffffffffffffffffffffffffffffffffffffff1673ffffffffffffffffffffffffffffffffffffffff163373ffffffffffffffffffffffffffffffffffffffff16141515610d9857600080fd5b6000809054906101000a900473ffffffffffffffffffffffffffffffffffffffff1673ffffffffffffffffffffffffffffffffffffffff166108fc3073ffffffffffffffffffffffffffffffffffffffff16319081150290604051600060405180830381858888f193505050501515610e1057600080fd5b565b600080600583815481101515610e2457fe5b9060005260206000209060030201905080600201600e9054906101000a900461ffff16915050919050565b6000809054906101000a900473ffffffffffffffffffffffffffffffffffffffff1673ffffffffffffffffffffffffffffffffffffffff163373ffffffffffffffffffffffffffffffffffffffff16141515610eaa57600080fd5b80600860006101000a81548173ffffffffffffffffffffffffffffffffffffffff021916908373ffffffffffffffffffffffffffffffffffffffff16021790555050565b60148281600582815481101515610f0157fe5b906000526020600020906003020160020160009054906101000a900463ffffffff1663ffffffff1610151515610f3657600080fd5b836006600082815260200190815260200160002060009054906101000a900473ffffffffffffffffffffffffffffffffffffffff1673ffffffffffffffffffffffffffffffffffffffff163373ffffffffffffffffffffffffffffffffffffffff16141515610fa457600080fd5b83600586815481101515610fb457fe5b9060005260206000209060030201600101819055505050505050565b60006006600083815260200190815260200160002060009054906101000a900473ffffffffffffffffffffffffffffffffffffffff169050919050565b611015612420565b600060058381548110151561102657fe5b90600052602060002090600302019050806000018054600181600116156101000203166002900480601f0160208091040260200160405190810160405280929190818152602001828054600181600116156101000203166002900480156110ce5780601f106110a3576101008083540402835291602001916110ce565b820191906000526020600020905b8154815290600101906020018083116110b157829003601f168201915b5050505050915050919050565b6000600760008373ffffffffffffffffffffffffffffffffffffffff1673ffffffffffffffffffffffffffffffffffffffff168152602001908152602001600020549050919050565b6000809054906101000a900473ffffffffffffffffffffffffffffffffffffffff1681565b60008060058381548110151561115b57fe5b9060005260206000209060030201905080600201600c9054906101000a900461ffff16915050919050565b61118e612434565b611196612434565b600080600760008673ffffffffffffffffffffffffffffffffffffffff1673ffffffffffffffffffffffffffffffffffffffff168152602001908152602001600020546040518059106111e65750595b9080825280602002602001820160405250925060009150600090505b6005805490508110156112a9578473ffffffffffffffffffffffffffffffffffffffff166006600083815260200190815260200160002060009054906101000a900473ffffffffffffffffffffffffffffffffffffffff1673ffffffffffffffffffffffffffffffffffffffff16141561129c5780838381518110151561128557fe5b906020019060200201818152505081806001019250505b8080600101915050611202565b829350505050919050565b806006600082815260200190815260200160002060009054906101000a900473ffffffffffffffffffffffffffffffffffffffff1673ffffffffffffffffffffffffffffffffffffffff163373ffffffffffffffffffffffffffffffffffffffff1614151561132257600080fd5b61132d338484611dbc565b505050565b600080600760003373ffffffffffffffffffffffffffffffffffffffff1673ffffffffffffffffffffffffffffffffffffffff1681526020019081526020016000205414151561138157600080fd5b61138a82611fa4565b905060648181151561139857fe5b06810390506113a78282612026565b5050565b60003373ffffffffffffffffffffffffffffffffffffffff16600c600084815260200190815260200160002060009054906101000a900473ffffffffffffffffffffffffffffffffffffffff1673ffffffffffffffffffffffffffffffffffffffff1614151561141a57600080fd5b61142382610fd0565b9050611430813384611dbc565b5050565b6002838160058281548110151561144757fe5b906000526020600020906003020160020160009054906101000a900463ffffffff1663ffffffff161015151561147c57600080fd5b846006600082815260200190815260200160002060009054906101000a900473ffffffffffffffffffffffffffffffffffffffff1673ffffffffffffffffffffffffffffffffffffffff163373ffffffffffffffffffffffffffffffffffffffff161415156114ea57600080fd5b84846005888154811015156114fb57fe5b90600052602060002090600302016000019190611519929190612448565b50505050505050565b6000809054906101000a900473ffffffffffffffffffffffffffffffffffffffff1673ffffffffffffffffffffffffffffffffffffffff163373ffffffffffffffffffffffffffffffffffffffff1614151561157d57600080fd5b8060098190555050565b6000806004543414151561159a57600080fd5b6115d586868080601f016020809104026020016040519081016040528093929190818152602001838380828437820191505050505050611fa4565b91506064828115156115e357fe5b068203915061162486868080601f01602080910402602001604051908101604052809392919081815260200183838082843782019150505050505083612026565b61165f84848080601f016020809104026020016040519081016040528093929190818152602001838380828437820191505050505050611fa4565b905060648181151561166d57fe5b06810390506116ae84848080601f01602080910402602001604051908101604052809392919081815260200183838082843782019150505050505082612026565b505050505050565b6000806000846006600082815260200190815260200160002060009054906101000a900473ffffffffffffffffffffffffffffffffffffffff1673ffffffffffffffffffffffffffffffffffffffff163373ffffffffffffffffffffffffffffffffffffffff1614151561172957600080fd5b60058681548110151561173857fe5b9060005260206000209060030201935060058581548110151561175757fe5b90600052602060002090600302019250611771606461230b565b915061177c85610e12565b61178587611149565b0161ffff16600b81905550600b54606461179e88611149565b0261ffff168115156117ac57fe5b04600b81905550600b54821115156118dd5783600201600881819054906101000a900461ffff168092919060010191906101000a81548161ffff021916908361ffff1602179055505083600201600081819054906101000a900463ffffffff168092919060010191906101000a81548163ffffffff021916908363ffffffff1602179055505082600201600a81819054906101000a900461ffff168092919060010191906101000a81548161ffff021916908361ffff1602179055505083600201600c81819054906101000a900461ffff168092919060010191906101000a81548161ffff021916908361ffff1602179055505082600201600e81819054906101000a900461ffff16809291906001900391906101000a81548161ffff021916908361ffff160217905550506119c4565b83600201600a81819054906101000a900461ffff168092919060010191906101000a81548161ffff021916908361ffff1602179055505082600201600881819054906101000a900461ffff168092919060010191906101000a81548161ffff021916908361ffff1602179055505061195484612398565b83600201600c81819054906101000a900461ffff16809291906001900391906101000a81548161ffff021916908361ffff1602179055505082600201600e81819054906101000a900461ffff168092919060010191906101000a81548161ffff021916908361ffff160217905550505b505050505050565b60076020528060005260406000206000915090505481565b6005818154811015156119f357fe5b906000526020600020906003020160009150905080600001908060010154908060020160009054906101000a900463ffffffff16908060020160049054906101000a900463ffffffff16908060020160089054906101000a900461ffff169080600201600a9054906101000a900461ffff169080600201600c9054906101000a900461ffff169080600201600e9054906101000a900461ffff16905088565b6000809054906101000a900473ffffffffffffffffffffffffffffffffffffffff1673ffffffffffffffffffffffffffffffffffffffff163373ffffffffffffffffffffffffffffffffffffffff16141515611aed57600080fd5b600073ffffffffffffffffffffffffffffffffffffffff168173ffffffffffffffffffffffffffffffffffffffff1614151515611b2957600080fd5b8073ffffffffffffffffffffffffffffffffffffffff166000809054906101000a900473ffffffffffffffffffffffffffffffffffffffff1673ffffffffffffffffffffffffffffffffffffffff167f8be0079c531659141344cd1fd0a4f28419497f9722a3daafe3b4186f6b6457e060405160405180910390a3806000806101000a81548173ffffffffffffffffffffffffffffffffffffffff021916908373ffffffffffffffffffffffffffffffffffffffff16021790555050565b600080846006600082815260200190815260200160002060009054906101000a900473ffffffffffffffffffffffffffffffffffffffff1673ffffffffffffffffffffffffffffffffffffffff163373ffffffffffffffffffffffffffffffffffffffff16141515611c5857600080fd5b600586815481101515611c6757fe5b90600052602060002090600302019250611c80836123c2565b1515611c8b57600080fd5b60025485811515611c9857fe5b069450600285846001015401811515611cad57fe5b04915060405180807f6b697474790000000000000000000000000000000000000000000000000000008152506005019050604051809103902060001916846040518082805190602001908083835b602083101515611d205780518252602082019150602081019050602083039250611cfb565b6001836020036101000a0380198251168184511680821785525050505050509050019150506040518091039020600019161415611d6c576063606483811515611d6557fe5b0683030191505b611dab6040805190810160405280600681526020017f4e6f4e616d65000000000000000000000000000000000000000000000000000081525083612026565b611db483612398565b505050505050565b611e0f6001600760008573ffffffffffffffffffffffffffffffffffffffff1673ffffffffffffffffffffffffffffffffffffffff168152602001908152602001600020546123e990919063ffffffff16565b600760008473ffffffffffffffffffffffffffffffffffffffff1673ffffffffffffffffffffffffffffffffffffffff16815260200190815260200160002081905550611ea56001600760003373ffffffffffffffffffffffffffffffffffffffff1673ffffffffffffffffffffffffffffffffffffffff1681526020019081526020016000205461240790919063ffffffff16565b600760003373ffffffffffffffffffffffffffffffffffffffff1673ffffffffffffffffffffffffffffffffffffffff16815260200190815260200160002081905550816006600083815260200190815260200160002060006101000a81548173ffffffffffffffffffffffffffffffffffffffff021916908373ffffffffffffffffffffffffffffffffffffffff1602179055508173ffffffffffffffffffffffffffffffffffffffff168373ffffffffffffffffffffffffffffffffffffffff167fddf252ad1be2c89b69c2b068fc378daa952ba7f163c4a11628f55a4df523b3ef836040518082815260200191505060405180910390a3505050565b600080826040518082805190602001908083835b602083101515611fdd5780518252602082019150602081019050602083039250611fb8565b6001836020036101000a03801982511681845116808217855250505050505090500191505060405180910390206001900490506002548181151561201d57fe5b06915050919050565b600060016005805480600101828161203e91906124c8565b9160005260206000209060030201600061010060405190810160405280888152602001878152602001600163ffffffff168152602001600354420163ffffffff168152602001600061ffff168152602001600061ffff168152602001603261ffff168152602001601e61ffff16815250909190915060008201518160000190805190602001906120cf9291906124fa565b506020820151816001015560408201518160020160006101000a81548163ffffffff021916908363ffffffff16021790555060608201518160020160046101000a81548163ffffffff021916908363ffffffff16021790555060808201518160020160086101000a81548161ffff021916908361ffff16021790555060a082015181600201600a6101000a81548161ffff021916908361ffff16021790555060c082015181600201600c6101000a81548161ffff021916908361ffff16021790555060e082015181600201600e6101000a81548161ffff021916908361ffff1602179055505050039050336006600083815260200190815260200160002060006101000a81548173ffffffffffffffffffffffffffffffffffffffff021916908373ffffffffffffffffffffffffffffffffffffffff160217905550600760003373ffffffffffffffffffffffffffffffffffffffff1673ffffffffffffffffffffffffffffffffffffffff168152602001908152602001600020600081548092919060010191905055507f071c0343a2fb36c7d7178d42917b7a919b8098773661711cb31bb4255c26ec838184846040518084815260200180602001838152602001828103825284818151815260200191508051906020019080838360005b838110156122ca5780820151818401526020810190506122af565b50505050905090810190601f1680156122f75780820380516001836020036101000a031916815260200191505b5094505050505060405180910390a1505050565b6000600a60008154809291906001019190505550814233600a54604051808481526020018373ffffffffffffffffffffffffffffffffffffffff1673ffffffffffffffffffffffffffffffffffffffff166c01000000000000000000000000028152601401828152602001935050505060405180910390206001900481151561239057fe5b069050919050565b60035442018160020160046101000a81548163ffffffff021916908363ffffffff16021790555050565b6000428260020160049054906101000a900463ffffffff1663ffffffff1611159050919050565b60008082840190508381101515156123fd57fe5b8091505092915050565b600082821115151561241557fe5b818303905092915050565b602060405190810160405280600081525090565b602060405190810160405280600081525090565b828054600181600116156101000203166002900490600052602060002090601f016020900481019282601f1061248957803560ff19168380011785556124b7565b828001600101855582156124b7579182015b828111156124b657823582559160200191906001019061249b565b5b5090506124c4919061257a565b5090565b8154818355818115116124f5576003028160030283600052602060002091820191016124f4919061259f565b5b505050565b828054600181600116156101000203166002900490600052602060002090601f016020900481019282601f1061253b57805160ff1916838001178555612569565b82800160010185558215612569579182015b8281111561256857825182559160200191906001019061254d565b5b509050612576919061257a565b5090565b61259c91905b80821115612598576000816000905550600101612580565b5090565b90565b61265591905b8082111561265157600080820160006125be9190612658565b60018201600090556002820160006101000a81549063ffffffff02191690556002820160046101000a81549063ffffffff02191690556002820160086101000a81549061ffff021916905560028201600a6101000a81549061ffff021916905560028201600c6101000a81549061ffff021916905560028201600e6101000a81549061ffff0219169055506003016125a5565b5090565b90565b50805460018160011615610100020316600290046000825580601f1061267e575061269d565b601f01602090049060005260206000209081019061269c919061257a565b5b505600a165627a7a72305820bec053cdac73a65ead5fb4082ca37742675175171304b3ed19a718c6ba2b808e0029",
  "source": "pragma solidity ^0.4.19;\n\nimport \"./athleteattack.sol\";\nimport \"./erc721.sol\";\nimport \"./safemath.sol\";\n\n/// TODO: Replace this with natspec descriptions\ncontract AthleteOwnership is AthleteAttack, ERC721 {\n\n  using SafeMath for uint256;\n\n  mapping (uint => address) athleteApprovals;\n\n  function balanceOf(address _owner) public view returns (uint256 _balance) {\n    return ownerAthleteCount[_owner];\n  }\n\n  function ownerOf(uint256 _tokenId) public view returns (address _owner) {\n    return athleteToOwner[_tokenId];\n  }\n\n  function _transfer(address _from, address _to, uint256 _tokenId) private {\n    ownerAthleteCount[_to] = ownerAthleteCount[_to].add(1);\n    ownerAthleteCount[msg.sender] = ownerAthleteCount[msg.sender].sub(1);\n    athleteToOwner[_tokenId] = _to;\n    Transfer(_from, _to, _tokenId);\n  }\n\n  function transfer(address _to, uint256 _tokenId) public onlyOwnerOf(_tokenId) {\n    _transfer(msg.sender, _to, _tokenId);\n  }\n\n  function approve(address _to, uint256 _tokenId) public onlyOwnerOf(_tokenId) {\n    athleteApprovals[_tokenId] = _to;\n    Approval(msg.sender, _to, _tokenId);\n  }\n\n  function takeOwnership(uint256 _tokenId) public {\n    require(athleteApprovals[_tokenId] == msg.sender);\n    address owner = ownerOf(_tokenId);\n    _transfer(owner, msg.sender, _tokenId);\n  }\n}\n",
  "sourcePath": "/Users/danieltrinh/Desktop/BitFantasy/EAS499Development/cryptoathletes/contracts/athleteownership.sol",
  "compiler": {
    "name": "solc",
    "version": "0.4.19+commit.c4cbbb05.Emscripten.clang"
  },
  "schemaVersion": "2.0.0",
  "updatedAt": "2018-04-25T02:19:35.845Z"
}