{
  "contractName": "AthleteAttack",
  "abi": [
    {
      "constant": false,
      "inputs": [
        {
          "name": "_athleteId",
          "type": "uint256"
        }
      ],
      "name": "levelUp",
      "outputs": [],
      "payable": true,
      "stateMutability": "payable",
      "type": "function"
    },
    {
      "constant": false,
      "inputs": [
        {
          "name": "_athleteId",
          "type": "uint256"
        },
        {
          "name": "_kittyId",
          "type": "uint256"
        }
      ],
      "name": "feedOnKitty",
      "outputs": [],
      "payable": false,
      "stateMutability": "nonpayable",
      "type": "function"
    },
    {
      "constant": true,
      "inputs": [
        {
          "name": "",
          "type": "uint256"
        }
      ],
      "name": "athleteToOwner",
      "outputs": [
        {
          "name": "",
          "type": "address"
        }
      ],
      "payable": false,
      "stateMutability": "view",
      "type": "function"
    },
    {
      "constant": false,
      "inputs": [],
      "name": "withdraw",
      "outputs": [],
      "payable": false,
      "stateMutability": "nonpayable",
      "type": "function"
    },
    {
      "constant": false,
      "inputs": [
        {
          "name": "_address",
          "type": "address"
        }
      ],
      "name": "setKittyContractAddress",
      "outputs": [],
      "payable": false,
      "stateMutability": "nonpayable",
      "type": "function"
    },
    {
      "constant": false,
      "inputs": [
        {
          "name": "_athleteId",
          "type": "uint256"
        },
        {
          "name": "_newDna",
          "type": "uint256"
        }
      ],
      "name": "changeDna",
      "outputs": [],
      "payable": false,
      "stateMutability": "nonpayable",
      "type": "function"
    },
    {
      "constant": true,
      "inputs": [],
      "name": "owner",
      "outputs": [
        {
          "name": "",
          "type": "address"
        }
      ],
      "payable": false,
      "stateMutability": "view",
      "type": "function"
    },
    {
      "constant": true,
      "inputs": [
        {
          "name": "_owner",
          "type": "address"
        }
      ],
      "name": "getAthletesByOwner",
      "outputs": [
        {
          "name": "",
          "type": "uint256[]"
        }
      ],
      "payable": false,
      "stateMutability": "view",
      "type": "function"
    },
    {
      "constant": false,
      "inputs": [
        {
          "name": "_name",
          "type": "string"
        }
      ],
      "name": "createRandomAthlete",
      "outputs": [],
      "payable": false,
      "stateMutability": "nonpayable",
      "type": "function"
    },
    {
      "constant": false,
      "inputs": [
        {
          "name": "_athleteId",
          "type": "uint256"
        },
        {
          "name": "_newName",
          "type": "string"
        }
      ],
      "name": "changeName",
      "outputs": [],
      "payable": false,
      "stateMutability": "nonpayable",
      "type": "function"
    },
    {
      "constant": false,
      "inputs": [
        {
          "name": "_fee",
          "type": "uint256"
        }
      ],
      "name": "setLevelUpFee",
      "outputs": [],
      "payable": false,
      "stateMutability": "nonpayable",
      "type": "function"
    },
    {
      "constant": false,
      "inputs": [
        {
          "name": "_name",
          "type": "string"
        },
        {
          "name": "_name2",
          "type": "string"
        }
      ],
      "name": "buyPackAthletes",
      "outputs": [],
      "payable": true,
      "stateMutability": "payable",
      "type": "function"
    },
    {
      "constant": true,
      "inputs": [
        {
          "name": "",
          "type": "address"
        }
      ],
      "name": "ownerAthleteCount",
      "outputs": [
        {
          "name": "",
          "type": "uint256"
        }
      ],
      "payable": false,
      "stateMutability": "view",
      "type": "function"
    },
    {
      "constant": true,
      "inputs": [
        {
          "name": "",
          "type": "uint256"
        }
      ],
      "name": "athletes",
      "outputs": [
        {
          "name": "name",
          "type": "string"
        },
        {
          "name": "dna",
          "type": "uint256"
        },
        {
          "name": "level",
          "type": "uint32"
        },
        {
          "name": "readyTime",
          "type": "uint32"
        },
        {
          "name": "winCount",
          "type": "uint16"
        },
        {
          "name": "lossCount",
          "type": "uint16"
        },
        {
          "name": "offensiveRating",
          "type": "uint16"
        },
        {
          "name": "defensiveRating",
          "type": "uint16"
        }
      ],
      "payable": false,
      "stateMutability": "view",
      "type": "function"
    },
    {
      "constant": false,
      "inputs": [
        {
          "name": "newOwner",
          "type": "address"
        }
      ],
      "name": "transferOwnership",
      "outputs": [],
      "payable": false,
      "stateMutability": "nonpayable",
      "type": "function"
    },
    {
      "anonymous": false,
      "inputs": [
        {
          "indexed": false,
          "name": "athleteId",
          "type": "uint256"
        },
        {
          "indexed": false,
          "name": "name",
          "type": "string"
        },
        {
          "indexed": false,
          "name": "dna",
          "type": "uint256"
        }
      ],
      "name": "NewAthlete",
      "type": "event"
    },
    {
      "anonymous": false,
      "inputs": [
        {
          "indexed": true,
          "name": "previousOwner",
          "type": "address"
        },
        {
          "indexed": true,
          "name": "newOwner",
          "type": "address"
        }
      ],
      "name": "OwnershipTransferred",
      "type": "event"
    },
    {
      "constant": false,
      "inputs": [
        {
          "name": "_athleteId",
          "type": "uint256"
        },
        {
          "name": "_targetId",
          "type": "uint256"
        }
      ],
      "name": "attack",
      "outputs": [],
      "payable": false,
      "stateMutability": "nonpayable",
      "type": "function"
    },
    {
      "constant": true,
      "inputs": [
        {
          "name": "_athleteId",
          "type": "uint256"
        }
      ],
      "name": "winCount",
      "outputs": [
        {
          "name": "",
          "type": "uint256"
        }
      ],
      "payable": false,
      "stateMutability": "view",
      "type": "function"
    },
    {
      "constant": true,
      "inputs": [
        {
          "name": "_athleteId",
          "type": "uint256"
        }
      ],
      "name": "lossCount",
      "outputs": [
        {
          "name": "",
          "type": "uint256"
        }
      ],
      "payable": false,
      "stateMutability": "view",
      "type": "function"
    },
    {
      "constant": true,
      "inputs": [
        {
          "name": "_athleteId",
          "type": "uint256"
        }
      ],
      "name": "level",
      "outputs": [
        {
          "name": "",
          "type": "uint256"
        }
      ],
      "payable": false,
      "stateMutability": "view",
      "type": "function"
    },
    {
      "constant": true,
      "inputs": [
        {
          "name": "_athleteId",
          "type": "uint256"
        }
      ],
      "name": "getName",
      "outputs": [
        {
          "name": "",
          "type": "string"
        }
      ],
      "payable": false,
      "stateMutability": "view",
      "type": "function"
    },
    {
      "constant": true,
      "inputs": [
        {
          "name": "_athleteId",
          "type": "uint256"
        }
      ],
      "name": "getOffRating",
      "outputs": [
        {
          "name": "",
          "type": "uint16"
        }
      ],
      "payable": false,
      "stateMutability": "view",
      "type": "function"
    },
    {
      "constant": true,
      "inputs": [
        {
          "name": "_athleteId",
          "type": "uint256"
        }
      ],
      "name": "getDefRating",
      "outputs": [
        {
          "name": "",
          "type": "uint16"
        }
      ],
      "payable": false,
      "stateMutability": "view",
      "type": "function"
    }
  ],
  "bytecode": "0x60606040526010600155600154600a0a6002556201518060035567011c37937e08000060045566038d7ea4c680006009556000600a55601e600b55336000806101000a81548173ffffffffffffffffffffffffffffffffffffffff021916908373ffffffffffffffffffffffffffffffffffffffff160217905550612068806100896000396000f300606060405260043610610128576000357c0100000000000000000000000000000000000000000000000000000000900463ffffffff16806305c58df21461012d5780630ce90ec21461016457806317a7f4cc1461017c57806320933daf146101a857806322a1bf65146101df5780633b5772ee146102425780633ccfd60b146102795780635bd30e021461028e5780635f4623f1146102cd5780635faf2880146103065780636b8ff574146103325780638da5cb5b146103ce57806390bc7348146104235780639e1d942314610462578063b2cb2466146104f0578063c39cbef11461054d578063ccf670f814610584578063dfe242b1146105a7578063e1fa7638146105de578063e2acabfd1461060a578063edef8b8314610657578063f2fde38b14610779575b600080fd5b341561013857600080fd5b61014e60048080359060200190919050506107b2565b6040518082815260200191505060405180910390f35b61017a60048080359060200190919050506107f7565b005b341561018757600080fd5b6101a66004808035906020019091908035906020019091905050610863565b005b34156101b357600080fd5b6101c960048080359060200190919050506109d0565b6040518082815260200191505060405180910390f35b34156101ea57600080fd5b6102006004808035906020019091905050610a11565b604051808273ffffffffffffffffffffffffffffffffffffffff1673ffffffffffffffffffffffffffffffffffffffff16815260200191505060405180910390f35b341561024d57600080fd5b6102636004808035906020019091905050610a44565b6040518082815260200191505060405180910390f35b341561028457600080fd5b61028c610a85565b005b341561029957600080fd5b6102af6004808035906020019091905050610b5a565b604051808261ffff1661ffff16815260200191505060405180910390f35b34156102d857600080fd5b610304600480803573ffffffffffffffffffffffffffffffffffffffff16906020019091905050610b97565b005b341561031157600080fd5b6103306004808035906020019091908035906020019091905050610c36565b005b341561033d57600080fd5b6103536004808035906020019091905050610d18565b6040518080602001828103825283818151815260200191508051906020019080838360005b83811015610393578082015181840152602081019050610378565b50505050905090810190601f1680156103c05780820380516001836020036101000a031916815260200191505b509250505060405180910390f35b34156103d957600080fd5b6103e1610de6565b604051808273ffffffffffffffffffffffffffffffffffffffff1673ffffffffffffffffffffffffffffffffffffffff16815260200191505060405180910390f35b341561042e57600080fd5b6104446004808035906020019091905050610e0b565b604051808261ffff1661ffff16815260200191505060405180910390f35b341561046d57600080fd5b610499600480803573ffffffffffffffffffffffffffffffffffffffff16906020019091905050610e48565b6040518080602001828103825283818151815260200191508051906020019060200280838360005b838110156104dc5780820151818401526020810190506104c1565b505050509050019250505060405180910390f35b34156104fb57600080fd5b61054b600480803590602001908201803590602001908080601f01602080910402602001604051908101604052809392919081815260200183838082843782019150505050505091905050610f76565b005b341561055857600080fd5b61058260048080359060200190919080359060200190820180359060200191909192905050610fef565b005b341561058f57600080fd5b6105a560048080359060200190919050506110dd565b005b6105dc600480803590602001908201803590602001919091929080359060200190820180359060200191909192905050611142565b005b34156105e957600080fd5b6106086004808035906020019091908035906020019091905050611271565b005b341561061557600080fd5b610641600480803573ffffffffffffffffffffffffffffffffffffffff16906020019091905050611587565b6040518082815260200191505060405180910390f35b341561066257600080fd5b610678600480803590602001909190505061159f565b60405180806020018981526020018863ffffffff1663ffffffff1681526020018763ffffffff1663ffffffff1681526020018661ffff1661ffff1681526020018561ffff1661ffff1681526020018461ffff1661ffff1681526020018361ffff1661ffff16815260200182810382528a8181546001816001161561010002031660029004815260200191508054600181600116156101000203166002900480156107635780601f1061073857610100808354040283529160200191610763565b820191906000526020600020905b81548152906001019060200180831161074657829003601f168201915b5050995050505050505050505060405180910390f35b341561078457600080fd5b6107b0600480803573ffffffffffffffffffffffffffffffffffffffff1690602001909190505061164d565b005b6000806005838154811015156107c457fe5b906000526020600020906003020190508060020160009054906101000a900463ffffffff1663ffffffff16915050919050565b6009543414151561080757600080fd5b60058181548110151561081657fe5b9060005260206000209060030201600201600081819054906101000a900463ffffffff168092919060010191906101000a81548163ffffffff021916908363ffffffff1602179055505050565b6000600860009054906101000a900473ffffffffffffffffffffffffffffffffffffffff1673ffffffffffffffffffffffffffffffffffffffff1663e98b7f4d83600060405161014001526040518263ffffffff167c01000000000000000000000000000000000000000000000000000000000281526004018082815260200191505061014060405180830381600087803b151561090057600080fd5b6102c65a03f1151561091157600080fd5b50505060405180519060200180519060200180519060200180519060200180519060200180519060200180519060200180519060200180519060200180519050909192939495969798509091929394959697509091929394959650909192939495509091929394509091929350909192509091509050809150506109cb83826040805190810160405280600581526020017f6b697474790000000000000000000000000000000000000000000000000000008152506117a2565b505050565b6000806005838154811015156109e257fe5b906000526020600020906003020190508060020160089054906101000a900461ffff1661ffff16915050919050565b60066020528060005260406000206000915054906101000a900473ffffffffffffffffffffffffffffffffffffffff1681565b600080600583815481101515610a5657fe5b9060005260206000209060030201905080600201600a9054906101000a900461ffff1661ffff16915050919050565b6000809054906101000a900473ffffffffffffffffffffffffffffffffffffffff1673ffffffffffffffffffffffffffffffffffffffff163373ffffffffffffffffffffffffffffffffffffffff16141515610ae057600080fd5b6000809054906101000a900473ffffffffffffffffffffffffffffffffffffffff1673ffffffffffffffffffffffffffffffffffffffff166108fc3073ffffffffffffffffffffffffffffffffffffffff16319081150290604051600060405180830381858888f193505050501515610b5857600080fd5b565b600080600583815481101515610b6c57fe5b9060005260206000209060030201905080600201600e9054906101000a900461ffff16915050919050565b6000809054906101000a900473ffffffffffffffffffffffffffffffffffffffff1673ffffffffffffffffffffffffffffffffffffffff163373ffffffffffffffffffffffffffffffffffffffff16141515610bf257600080fd5b80600860006101000a81548173ffffffffffffffffffffffffffffffffffffffff021916908373ffffffffffffffffffffffffffffffffffffffff16021790555050565b60148281600582815481101515610c4957fe5b906000526020600020906003020160020160009054906101000a900463ffffffff1663ffffffff1610151515610c7e57600080fd5b836006600082815260200190815260200160002060009054906101000a900473ffffffffffffffffffffffffffffffffffffffff1673ffffffffffffffffffffffffffffffffffffffff163373ffffffffffffffffffffffffffffffffffffffff16141515610cec57600080fd5b83600586815481101515610cfc57fe5b9060005260206000209060030201600101819055505050505050565b610d20611dbc565b6000600583815481101515610d3157fe5b90600052602060002090600302019050806000018054600181600116156101000203166002900480601f016020809104026020016040519081016040528092919081815260200182805460018160011615610100020316600290048015610dd95780601f10610dae57610100808354040283529160200191610dd9565b820191906000526020600020905b815481529060010190602001808311610dbc57829003601f168201915b5050505050915050919050565b6000809054906101000a900473ffffffffffffffffffffffffffffffffffffffff1681565b600080600583815481101515610e1d57fe5b9060005260206000209060030201905080600201600c9054906101000a900461ffff16915050919050565b610e50611dd0565b610e58611dd0565b600080600760008673ffffffffffffffffffffffffffffffffffffffff1673ffffffffffffffffffffffffffffffffffffffff16815260200190815260200160002054604051805910610ea85750595b9080825280602002602001820160405250925060009150600090505b600580549050811015610f6b578473ffffffffffffffffffffffffffffffffffffffff166006600083815260200190815260200160002060009054906101000a900473ffffffffffffffffffffffffffffffffffffffff1673ffffffffffffffffffffffffffffffffffffffff161415610f5e57808383815181101515610f4757fe5b906020019060200201818152505081806001019250505b8080600101915050610ec4565b829350505050919050565b600080600760003373ffffffffffffffffffffffffffffffffffffffff1673ffffffffffffffffffffffffffffffffffffffff16815260200190815260200160002054141515610fc557600080fd5b610fce82611977565b9050606481811515610fdc57fe5b0681039050610feb82826119f9565b5050565b6002838160058281548110151561100257fe5b906000526020600020906003020160020160009054906101000a900463ffffffff1663ffffffff161015151561103757600080fd5b846006600082815260200190815260200160002060009054906101000a900473ffffffffffffffffffffffffffffffffffffffff1673ffffffffffffffffffffffffffffffffffffffff163373ffffffffffffffffffffffffffffffffffffffff161415156110a557600080fd5b84846005888154811015156110b657fe5b906000526020600020906003020160000191906110d4929190611de4565b50505050505050565b6000809054906101000a900473ffffffffffffffffffffffffffffffffffffffff1673ffffffffffffffffffffffffffffffffffffffff163373ffffffffffffffffffffffffffffffffffffffff1614151561113857600080fd5b8060098190555050565b6000806004543414151561115557600080fd5b61119086868080601f016020809104026020016040519081016040528093929190818152602001838380828437820191505050505050611977565b915060648281151561119e57fe5b06820391506111df86868080601f016020809104026020016040519081016040528093929190818152602001838380828437820191505050505050836119f9565b61121a84848080601f016020809104026020016040519081016040528093929190818152602001838380828437820191505050505050611977565b905060648181151561122857fe5b068103905061126984848080601f016020809104026020016040519081016040528093929190818152602001838380828437820191505050505050826119f9565b505050505050565b6000806000846006600082815260200190815260200160002060009054906101000a900473ffffffffffffffffffffffffffffffffffffffff1673ffffffffffffffffffffffffffffffffffffffff163373ffffffffffffffffffffffffffffffffffffffff161415156112e457600080fd5b6005868154811015156112f357fe5b9060005260206000209060030201935060058581548110151561131257fe5b9060005260206000209060030201925061132c6064611cde565b915061133785610b5a565b61134087610e0b565b0161ffff16600b81905550600b54606461135988610e0b565b0261ffff1681151561136757fe5b04600b81905550600b54821115156114985783600201600881819054906101000a900461ffff168092919060010191906101000a81548161ffff021916908361ffff1602179055505083600201600081819054906101000a900463ffffffff168092919060010191906101000a81548163ffffffff021916908363ffffffff1602179055505082600201600a81819054906101000a900461ffff168092919060010191906101000a81548161ffff021916908361ffff1602179055505083600201600c81819054906101000a900461ffff168092919060010191906101000a81548161ffff021916908361ffff1602179055505082600201600e81819054906101000a900461ffff16809291906001900391906101000a81548161ffff021916908361ffff1602179055505061157f565b83600201600a81819054906101000a900461ffff168092919060010191906101000a81548161ffff021916908361ffff1602179055505082600201600881819054906101000a900461ffff168092919060010191906101000a81548161ffff021916908361ffff1602179055505061150f84611d6b565b83600201600c81819054906101000a900461ffff16809291906001900391906101000a81548161ffff021916908361ffff1602179055505082600201600e81819054906101000a900461ffff168092919060010191906101000a81548161ffff021916908361ffff160217905550505b505050505050565b60076020528060005260406000206000915090505481565b6005818154811015156115ae57fe5b906000526020600020906003020160009150905080600001908060010154908060020160009054906101000a900463ffffffff16908060020160049054906101000a900463ffffffff16908060020160089054906101000a900461ffff169080600201600a9054906101000a900461ffff169080600201600c9054906101000a900461ffff169080600201600e9054906101000a900461ffff16905088565b6000809054906101000a900473ffffffffffffffffffffffffffffffffffffffff1673ffffffffffffffffffffffffffffffffffffffff163373ffffffffffffffffffffffffffffffffffffffff161415156116a857600080fd5b600073ffffffffffffffffffffffffffffffffffffffff168173ffffffffffffffffffffffffffffffffffffffff16141515156116e457600080fd5b8073ffffffffffffffffffffffffffffffffffffffff166000809054906101000a900473ffffffffffffffffffffffffffffffffffffffff1673ffffffffffffffffffffffffffffffffffffffff167f8be0079c531659141344cd1fd0a4f28419497f9722a3daafe3b4186f6b6457e060405160405180910390a3806000806101000a81548173ffffffffffffffffffffffffffffffffffffffff021916908373ffffffffffffffffffffffffffffffffffffffff16021790555050565b600080846006600082815260200190815260200160002060009054906101000a900473ffffffffffffffffffffffffffffffffffffffff1673ffffffffffffffffffffffffffffffffffffffff163373ffffffffffffffffffffffffffffffffffffffff1614151561181357600080fd5b60058681548110151561182257fe5b9060005260206000209060030201925061183b83611d95565b151561184657600080fd5b6002548581151561185357fe5b06945060028584600101540181151561186857fe5b04915060405180807f6b697474790000000000000000000000000000000000000000000000000000008152506005019050604051809103902060001916846040518082805190602001908083835b6020831015156118db57805182526020820191506020810190506020830392506118b6565b6001836020036101000a038019825116818451168082178552505050505050905001915050604051809103902060001916141561192757606360648381151561192057fe5b0683030191505b6119666040805190810160405280600681526020017f4e6f4e616d650000000000000000000000000000000000000000000000000000815250836119f9565b61196f83611d6b565b505050505050565b600080826040518082805190602001908083835b6020831015156119b0578051825260208201915060208101905060208303925061198b565b6001836020036101000a0380198251168184511680821785525050505050509050019150506040518091039020600190049050600254818115156119f057fe5b06915050919050565b6000600160058054806001018281611a119190611e64565b9160005260206000209060030201600061010060405190810160405280888152602001878152602001600163ffffffff168152602001600354420163ffffffff168152602001600061ffff168152602001600061ffff168152602001603261ffff168152602001601e61ffff1681525090919091506000820151816000019080519060200190611aa2929190611e96565b506020820151816001015560408201518160020160006101000a81548163ffffffff021916908363ffffffff16021790555060608201518160020160046101000a81548163ffffffff021916908363ffffffff16021790555060808201518160020160086101000a81548161ffff021916908361ffff16021790555060a082015181600201600a6101000a81548161ffff021916908361ffff16021790555060c082015181600201600c6101000a81548161ffff021916908361ffff16021790555060e082015181600201600e6101000a81548161ffff021916908361ffff1602179055505050039050336006600083815260200190815260200160002060006101000a81548173ffffffffffffffffffffffffffffffffffffffff021916908373ffffffffffffffffffffffffffffffffffffffff160217905550600760003373ffffffffffffffffffffffffffffffffffffffff1673ffffffffffffffffffffffffffffffffffffffff168152602001908152602001600020600081548092919060010191905055507f071c0343a2fb36c7d7178d42917b7a919b8098773661711cb31bb4255c26ec838184846040518084815260200180602001838152602001828103825284818151815260200191508051906020019080838360005b83811015611c9d578082015181840152602081019050611c82565b50505050905090810190601f168015611cca5780820380516001836020036101000a031916815260200191505b5094505050505060405180910390a1505050565b6000600a60008154809291906001019190505550814233600a54604051808481526020018373ffffffffffffffffffffffffffffffffffffffff1673ffffffffffffffffffffffffffffffffffffffff166c010000000000000000000000000281526014018281526020019350505050604051809103902060019004811515611d6357fe5b069050919050565b60035442018160020160046101000a81548163ffffffff021916908363ffffffff16021790555050565b6000428260020160049054906101000a900463ffffffff1663ffffffff1611159050919050565b602060405190810160405280600081525090565b602060405190810160405280600081525090565b828054600181600116156101000203166002900490600052602060002090601f016020900481019282601f10611e2557803560ff1916838001178555611e53565b82800160010185558215611e53579182015b82811115611e52578235825591602001919060010190611e37565b5b509050611e609190611f16565b5090565b815481835581811511611e9157600302816003028360005260206000209182019101611e909190611f3b565b5b505050565b828054600181600116156101000203166002900490600052602060002090601f016020900481019282601f10611ed757805160ff1916838001178555611f05565b82800160010185558215611f05579182015b82811115611f04578251825591602001919060010190611ee9565b5b509050611f129190611f16565b5090565b611f3891905b80821115611f34576000816000905550600101611f1c565b5090565b90565b611ff191905b80821115611fed5760008082016000611f5a9190611ff4565b60018201600090556002820160006101000a81549063ffffffff02191690556002820160046101000a81549063ffffffff02191690556002820160086101000a81549061ffff021916905560028201600a6101000a81549061ffff021916905560028201600c6101000a81549061ffff021916905560028201600e6101000a81549061ffff021916905550600301611f41565b5090565b90565b50805460018160011615610100020316600290046000825580601f1061201a5750612039565b601f0160209004906000526020600020908101906120389190611f16565b5b505600a165627a7a72305820d9ff8bb58b714018b86140a87df6e57b7a811fff03ed5f8c4426098ed9a701380029",
  "source": "pragma solidity ^0.4.19;\n\nimport \"./athletehelper.sol\";\n\ncontract AthleteAttack is AthleteHelper {\n  uint randNonce = 0;\n  uint attackVictoryProbability = 30;\n\n  function randMod(uint _modulus) internal returns(uint) {\n    randNonce++;\n    return uint(keccak256(now, msg.sender, randNonce)) % _modulus;\n  }\n\n  function attack(uint _athleteId, uint _targetId) external onlyOwnerOf(_athleteId) {\n    Athlete storage myAthlete = athletes[_athleteId];\n    Athlete storage enemyAthlete = athletes[_targetId];\n    uint rand = randMod(100);\n    \n    attackVictoryProbability = getOffRating(_athleteId) + getDefRating(_targetId);\n    attackVictoryProbability = ((getOffRating(_athleteId) * 100) / attackVictoryProbability);\n\n    if (rand <= attackVictoryProbability) {\n      myAthlete.winCount++;\n      myAthlete.level++;\n      enemyAthlete.lossCount++;\n      //feedAndMultiply(_athleteId, enemyAthlete.dna, \"athlete\");\n      \n      //Can change for testing purposes\n      myAthlete.offensiveRating++;\n      enemyAthlete.defensiveRating--;\n    } else {\n      myAthlete.lossCount++;\n      enemyAthlete.winCount++;\n      _triggerCooldown(myAthlete);\n\n      //Can change for testing purposes\n      myAthlete.offensiveRating--;\n      enemyAthlete.defensiveRating++;\n    }\n  }\n\n  function winCount(uint _athleteId) public view returns(uint) {\n    Athlete storage myAthlete = athletes[_athleteId];\n    return myAthlete.winCount;\n  }\n\n  function lossCount(uint _athleteId) public view returns(uint) {\n    Athlete storage myAthlete = athletes[_athleteId];\n    return myAthlete.lossCount;\n  }\n\n  function level(uint _athleteId) public view returns(uint) {\n    Athlete storage myAthlete = athletes[_athleteId];\n    return myAthlete.level;\n  }\n\n  function getName(uint _athleteId) public view returns(string) {\n    Athlete storage myAthlete = athletes[_athleteId];\n    return myAthlete.name;\n  }\n\n  function getOffRating(uint _athleteId) public view returns(uint16) {\n    Athlete storage myAthlete = athletes[_athleteId];\n    return myAthlete.offensiveRating;\n  }\n\n  function getDefRating(uint _athleteId) public view returns(uint16) {\n    Athlete storage myAthlete = athletes[_athleteId];\n    return myAthlete.defensiveRating;\n  }\n}\n",
  "sourcePath": "/Users/danieltrinh/Desktop/BitFantasy/EAS499Development/cryptoathletes/contracts/athleteattack.sol",
  "compiler": {
    "name": "solc",
    "version": "0.4.19+commit.c4cbbb05.Emscripten.clang"
  },
  "schemaVersion": "2.0.0",
  "updatedAt": "2018-04-25T02:19:35.338Z"
}