{
  "contractName": "AthleteHelper",
  "abi": [
    {
      "constant": false,
      "inputs": [
        {
          "name": "_athleteId",
          "type": "uint256"
        },
        {
          "name": "_kittyId",
          "type": "uint256"
        }
      ],
      "name": "feedOnKitty",
      "outputs": [],
      "payable": false,
      "stateMutability": "nonpayable",
      "type": "function"
    },
    {
      "constant": true,
      "inputs": [
        {
          "name": "",
          "type": "uint256"
        }
      ],
      "name": "athleteToOwner",
      "outputs": [
        {
          "name": "",
          "type": "address"
        }
      ],
      "payable": false,
      "stateMutability": "view",
      "type": "function"
    },
    {
      "constant": false,
      "inputs": [
        {
          "name": "_address",
          "type": "address"
        }
      ],
      "name": "setKittyContractAddress",
      "outputs": [],
      "payable": false,
      "stateMutability": "nonpayable",
      "type": "function"
    },
    {
      "constant": true,
      "inputs": [],
      "name": "owner",
      "outputs": [
        {
          "name": "",
          "type": "address"
        }
      ],
      "payable": false,
      "stateMutability": "view",
      "type": "function"
    },
    {
      "constant": false,
      "inputs": [
        {
          "name": "_name",
          "type": "string"
        }
      ],
      "name": "createRandomAthlete",
      "outputs": [],
      "payable": false,
      "stateMutability": "nonpayable",
      "type": "function"
    },
    {
      "constant": false,
      "inputs": [
        {
          "name": "_name",
          "type": "string"
        },
        {
          "name": "_name2",
          "type": "string"
        }
      ],
      "name": "buyPackAthletes",
      "outputs": [],
      "payable": true,
      "stateMutability": "payable",
      "type": "function"
    },
    {
      "constant": true,
      "inputs": [
        {
          "name": "",
          "type": "address"
        }
      ],
      "name": "ownerAthleteCount",
      "outputs": [
        {
          "name": "",
          "type": "uint256"
        }
      ],
      "payable": false,
      "stateMutability": "view",
      "type": "function"
    },
    {
      "constant": true,
      "inputs": [
        {
          "name": "",
          "type": "uint256"
        }
      ],
      "name": "athletes",
      "outputs": [
        {
          "name": "name",
          "type": "string"
        },
        {
          "name": "dna",
          "type": "uint256"
        },
        {
          "name": "level",
          "type": "uint32"
        },
        {
          "name": "readyTime",
          "type": "uint32"
        },
        {
          "name": "winCount",
          "type": "uint16"
        },
        {
          "name": "lossCount",
          "type": "uint16"
        },
        {
          "name": "offensiveRating",
          "type": "uint16"
        },
        {
          "name": "defensiveRating",
          "type": "uint16"
        }
      ],
      "payable": false,
      "stateMutability": "view",
      "type": "function"
    },
    {
      "constant": false,
      "inputs": [
        {
          "name": "newOwner",
          "type": "address"
        }
      ],
      "name": "transferOwnership",
      "outputs": [],
      "payable": false,
      "stateMutability": "nonpayable",
      "type": "function"
    },
    {
      "anonymous": false,
      "inputs": [
        {
          "indexed": false,
          "name": "athleteId",
          "type": "uint256"
        },
        {
          "indexed": false,
          "name": "name",
          "type": "string"
        },
        {
          "indexed": false,
          "name": "dna",
          "type": "uint256"
        }
      ],
      "name": "NewAthlete",
      "type": "event"
    },
    {
      "anonymous": false,
      "inputs": [
        {
          "indexed": true,
          "name": "previousOwner",
          "type": "address"
        },
        {
          "indexed": true,
          "name": "newOwner",
          "type": "address"
        }
      ],
      "name": "OwnershipTransferred",
      "type": "event"
    },
    {
      "constant": false,
      "inputs": [],
      "name": "withdraw",
      "outputs": [],
      "payable": false,
      "stateMutability": "nonpayable",
      "type": "function"
    },
    {
      "constant": false,
      "inputs": [
        {
          "name": "_fee",
          "type": "uint256"
        }
      ],
      "name": "setLevelUpFee",
      "outputs": [],
      "payable": false,
      "stateMutability": "nonpayable",
      "type": "function"
    },
    {
      "constant": false,
      "inputs": [
        {
          "name": "_athleteId",
          "type": "uint256"
        }
      ],
      "name": "levelUp",
      "outputs": [],
      "payable": true,
      "stateMutability": "payable",
      "type": "function"
    },
    {
      "constant": false,
      "inputs": [
        {
          "name": "_athleteId",
          "type": "uint256"
        },
        {
          "name": "_newName",
          "type": "string"
        }
      ],
      "name": "changeName",
      "outputs": [],
      "payable": false,
      "stateMutability": "nonpayable",
      "type": "function"
    },
    {
      "constant": false,
      "inputs": [
        {
          "name": "_athleteId",
          "type": "uint256"
        },
        {
          "name": "_newDna",
          "type": "uint256"
        }
      ],
      "name": "changeDna",
      "outputs": [],
      "payable": false,
      "stateMutability": "nonpayable",
      "type": "function"
    },
    {
      "constant": true,
      "inputs": [
        {
          "name": "_owner",
          "type": "address"
        }
      ],
      "name": "getAthletesByOwner",
      "outputs": [
        {
          "name": "",
          "type": "uint256[]"
        }
      ],
      "payable": false,
      "stateMutability": "view",
      "type": "function"
    }
  ],
  "bytecode": "0x60606040526010600155600154600a0a6002556201518060035567011c37937e08000060045566038d7ea4c68000600955336000806101000a81548173ffffffffffffffffffffffffffffffffffffffff021916908373ffffffffffffffffffffffffffffffffffffffff16021790555061186a8061007f6000396000f3006060604052600436106100db576000357c0100000000000000000000000000000000000000000000000000000000900463ffffffff1680630ce90ec2146100e057806317a7f4cc146100f857806322a1bf65146101245780633ccfd60b146101875780635f4623f11461019c5780635faf2880146101d55780638da5cb5b146102015780639e1d942314610256578063b2cb2466146102e4578063c39cbef114610341578063ccf670f814610378578063dfe242b11461039b578063e2acabfd146103d2578063edef8b831461041f578063f2fde38b14610541575b600080fd5b6100f6600480803590602001909190505061057a565b005b341561010357600080fd5b61012260048080359060200190919080359060200190919050506105e6565b005b341561012f57600080fd5b6101456004808035906020019091905050610753565b604051808273ffffffffffffffffffffffffffffffffffffffff1673ffffffffffffffffffffffffffffffffffffffff16815260200191505060405180910390f35b341561019257600080fd5b61019a610786565b005b34156101a757600080fd5b6101d3600480803573ffffffffffffffffffffffffffffffffffffffff1690602001909190505061085b565b005b34156101e057600080fd5b6101ff60048080359060200190919080359060200190919050506108fa565b005b341561020c57600080fd5b6102146109dc565b604051808273ffffffffffffffffffffffffffffffffffffffff1673ffffffffffffffffffffffffffffffffffffffff16815260200191505060405180910390f35b341561026157600080fd5b61028d600480803573ffffffffffffffffffffffffffffffffffffffff16906020019091905050610a01565b6040518080602001828103825283818151815260200191508051906020019060200280838360005b838110156102d05780820151818401526020810190506102b5565b505050509050019250505060405180910390f35b34156102ef57600080fd5b61033f600480803590602001908201803590602001908080601f01602080910402602001604051908101604052809392919081815260200183838082843782019150505050505091905050610b2f565b005b341561034c57600080fd5b61037660048080359060200190919080359060200190820180359060200191909192905050610ba8565b005b341561038357600080fd5b6103996004808035906020019091905050610c96565b005b6103d0600480803590602001908201803590602001919091929080359060200190820180359060200191909192905050610cfb565b005b34156103dd57600080fd5b610409600480803573ffffffffffffffffffffffffffffffffffffffff16906020019091905050610e2a565b6040518082815260200191505060405180910390f35b341561042a57600080fd5b6104406004808035906020019091905050610e42565b60405180806020018981526020018863ffffffff1663ffffffff1681526020018763ffffffff1663ffffffff1681526020018661ffff1661ffff1681526020018561ffff1661ffff1681526020018461ffff1661ffff1681526020018361ffff1661ffff16815260200182810382528a81815460018160011615610100020316600290048152602001915080546001816001161561010002031660029004801561052b5780601f106105005761010080835404028352916020019161052b565b820191906000526020600020905b81548152906001019060200180831161050e57829003601f168201915b5050995050505050505050505060405180910390f35b341561054c57600080fd5b610578600480803573ffffffffffffffffffffffffffffffffffffffff16906020019091905050610ef0565b005b6009543414151561058a57600080fd5b60058181548110151561059957fe5b9060005260206000209060030201600201600081819054906101000a900463ffffffff168092919060010191906101000a81548163ffffffff021916908363ffffffff1602179055505050565b6000600860009054906101000a900473ffffffffffffffffffffffffffffffffffffffff1673ffffffffffffffffffffffffffffffffffffffff1663e98b7f4d83600060405161014001526040518263ffffffff167c01000000000000000000000000000000000000000000000000000000000281526004018082815260200191505061014060405180830381600087803b151561068357600080fd5b6102c65a03f1151561069457600080fd5b505050604051805190602001805190602001805190602001805190602001805190602001805190602001805190602001805190602001805190602001805190509091929394959697985090919293949596975090919293949596509091929394955090919293945090919293509091925090915090508091505061074e83826040805190810160405280600581526020017f6b69747479000000000000000000000000000000000000000000000000000000815250611045565b505050565b60066020528060005260406000206000915054906101000a900473ffffffffffffffffffffffffffffffffffffffff1681565b6000809054906101000a900473ffffffffffffffffffffffffffffffffffffffff1673ffffffffffffffffffffffffffffffffffffffff163373ffffffffffffffffffffffffffffffffffffffff161415156107e157600080fd5b6000809054906101000a900473ffffffffffffffffffffffffffffffffffffffff1673ffffffffffffffffffffffffffffffffffffffff166108fc3073ffffffffffffffffffffffffffffffffffffffff16319081150290604051600060405180830381858888f19350505050151561085957600080fd5b565b6000809054906101000a900473ffffffffffffffffffffffffffffffffffffffff1673ffffffffffffffffffffffffffffffffffffffff163373ffffffffffffffffffffffffffffffffffffffff161415156108b657600080fd5b80600860006101000a81548173ffffffffffffffffffffffffffffffffffffffff021916908373ffffffffffffffffffffffffffffffffffffffff16021790555050565b6014828160058281548110151561090d57fe5b906000526020600020906003020160020160009054906101000a900463ffffffff1663ffffffff161015151561094257600080fd5b836006600082815260200190815260200160002060009054906101000a900473ffffffffffffffffffffffffffffffffffffffff1673ffffffffffffffffffffffffffffffffffffffff163373ffffffffffffffffffffffffffffffffffffffff161415156109b057600080fd5b836005868154811015156109c057fe5b9060005260206000209060030201600101819055505050505050565b6000809054906101000a900473ffffffffffffffffffffffffffffffffffffffff1681565b610a096115d2565b610a116115d2565b600080600760008673ffffffffffffffffffffffffffffffffffffffff1673ffffffffffffffffffffffffffffffffffffffff16815260200190815260200160002054604051805910610a615750595b9080825280602002602001820160405250925060009150600090505b600580549050811015610b24578473ffffffffffffffffffffffffffffffffffffffff166006600083815260200190815260200160002060009054906101000a900473ffffffffffffffffffffffffffffffffffffffff1673ffffffffffffffffffffffffffffffffffffffff161415610b1757808383815181101515610b0057fe5b906020019060200201818152505081806001019250505b8080600101915050610a7d565b829350505050919050565b600080600760003373ffffffffffffffffffffffffffffffffffffffff1673ffffffffffffffffffffffffffffffffffffffff16815260200190815260200160002054141515610b7e57600080fd5b610b878261121a565b9050606481811515610b9557fe5b0681039050610ba4828261129c565b5050565b60028381600582815481101515610bbb57fe5b906000526020600020906003020160020160009054906101000a900463ffffffff1663ffffffff1610151515610bf057600080fd5b846006600082815260200190815260200160002060009054906101000a900473ffffffffffffffffffffffffffffffffffffffff1673ffffffffffffffffffffffffffffffffffffffff163373ffffffffffffffffffffffffffffffffffffffff16141515610c5e57600080fd5b8484600588815481101515610c6f57fe5b90600052602060002090600302016000019190610c8d9291906115e6565b50505050505050565b6000809054906101000a900473ffffffffffffffffffffffffffffffffffffffff1673ffffffffffffffffffffffffffffffffffffffff163373ffffffffffffffffffffffffffffffffffffffff16141515610cf157600080fd5b8060098190555050565b60008060045434141515610d0e57600080fd5b610d4986868080601f01602080910402602001604051908101604052809392919081815260200183838082843782019150505050505061121a565b9150606482811515610d5757fe5b0682039150610d9886868080601f0160208091040260200160405190810160405280939291908181526020018383808284378201915050505050508361129c565b610dd384848080601f01602080910402602001604051908101604052809392919081815260200183838082843782019150505050505061121a565b9050606481811515610de157fe5b0681039050610e2284848080601f0160208091040260200160405190810160405280939291908181526020018383808284378201915050505050508261129c565b505050505050565b60076020528060005260406000206000915090505481565b600581815481101515610e5157fe5b906000526020600020906003020160009150905080600001908060010154908060020160009054906101000a900463ffffffff16908060020160049054906101000a900463ffffffff16908060020160089054906101000a900461ffff169080600201600a9054906101000a900461ffff169080600201600c9054906101000a900461ffff169080600201600e9054906101000a900461ffff16905088565b6000809054906101000a900473ffffffffffffffffffffffffffffffffffffffff1673ffffffffffffffffffffffffffffffffffffffff163373ffffffffffffffffffffffffffffffffffffffff16141515610f4b57600080fd5b600073ffffffffffffffffffffffffffffffffffffffff168173ffffffffffffffffffffffffffffffffffffffff1614151515610f8757600080fd5b8073ffffffffffffffffffffffffffffffffffffffff166000809054906101000a900473ffffffffffffffffffffffffffffffffffffffff1673ffffffffffffffffffffffffffffffffffffffff167f8be0079c531659141344cd1fd0a4f28419497f9722a3daafe3b4186f6b6457e060405160405180910390a3806000806101000a81548173ffffffffffffffffffffffffffffffffffffffff021916908373ffffffffffffffffffffffffffffffffffffffff16021790555050565b600080846006600082815260200190815260200160002060009054906101000a900473ffffffffffffffffffffffffffffffffffffffff1673ffffffffffffffffffffffffffffffffffffffff163373ffffffffffffffffffffffffffffffffffffffff161415156110b657600080fd5b6005868154811015156110c557fe5b906000526020600020906003020192506110de83611581565b15156110e957600080fd5b600254858115156110f657fe5b06945060028584600101540181151561110b57fe5b04915060405180807f6b697474790000000000000000000000000000000000000000000000000000008152506005019050604051809103902060001916846040518082805190602001908083835b60208310151561117e5780518252602082019150602081019050602083039250611159565b6001836020036101000a03801982511681845116808217855250505050505090500191505060405180910390206000191614156111ca5760636064838115156111c357fe5b0683030191505b6112096040805190810160405280600681526020017f4e6f4e616d6500000000000000000000000000000000000000000000000000008152508361129c565b611212836115a8565b505050505050565b600080826040518082805190602001908083835b602083101515611253578051825260208201915060208101905060208303925061122e565b6001836020036101000a03801982511681845116808217855250505050505090500191505060405180910390206001900490506002548181151561129357fe5b06915050919050565b60006001600580548060010182816112b49190611666565b9160005260206000209060030201600061010060405190810160405280888152602001878152602001600163ffffffff168152602001600354420163ffffffff168152602001600061ffff168152602001600061ffff168152602001603261ffff168152602001601e61ffff1681525090919091506000820151816000019080519060200190611345929190611698565b506020820151816001015560408201518160020160006101000a81548163ffffffff021916908363ffffffff16021790555060608201518160020160046101000a81548163ffffffff021916908363ffffffff16021790555060808201518160020160086101000a81548161ffff021916908361ffff16021790555060a082015181600201600a6101000a81548161ffff021916908361ffff16021790555060c082015181600201600c6101000a81548161ffff021916908361ffff16021790555060e082015181600201600e6101000a81548161ffff021916908361ffff1602179055505050039050336006600083815260200190815260200160002060006101000a81548173ffffffffffffffffffffffffffffffffffffffff021916908373ffffffffffffffffffffffffffffffffffffffff160217905550600760003373ffffffffffffffffffffffffffffffffffffffff1673ffffffffffffffffffffffffffffffffffffffff168152602001908152602001600020600081548092919060010191905055507f071c0343a2fb36c7d7178d42917b7a919b8098773661711cb31bb4255c26ec838184846040518084815260200180602001838152602001828103825284818151815260200191508051906020019080838360005b83811015611540578082015181840152602081019050611525565b50505050905090810190601f16801561156d5780820380516001836020036101000a031916815260200191505b5094505050505060405180910390a1505050565b6000428260020160049054906101000a900463ffffffff1663ffffffff1611159050919050565b60035442018160020160046101000a81548163ffffffff021916908363ffffffff16021790555050565b602060405190810160405280600081525090565b828054600181600116156101000203166002900490600052602060002090601f016020900481019282601f1061162757803560ff1916838001178555611655565b82800160010185558215611655579182015b82811115611654578235825591602001919060010190611639565b5b5090506116629190611718565b5090565b81548183558181151161169357600302816003028360005260206000209182019101611692919061173d565b5b505050565b828054600181600116156101000203166002900490600052602060002090601f016020900481019282601f106116d957805160ff1916838001178555611707565b82800160010185558215611707579182015b828111156117065782518255916020019190600101906116eb565b5b5090506117149190611718565b5090565b61173a91905b8082111561173657600081600090555060010161171e565b5090565b90565b6117f391905b808211156117ef576000808201600061175c91906117f6565b60018201600090556002820160006101000a81549063ffffffff02191690556002820160046101000a81549063ffffffff02191690556002820160086101000a81549061ffff021916905560028201600a6101000a81549061ffff021916905560028201600c6101000a81549061ffff021916905560028201600e6101000a81549061ffff021916905550600301611743565b5090565b90565b50805460018160011615610100020316600290046000825580601f1061181c575061183b565b601f01602090049060005260206000209081019061183a9190611718565b5b505600a165627a7a723058205fa7cc944092c05968a866bc5eb11ddb0b1f6079bf0a6b416780b5560fd8fa850029",
  "source": "pragma solidity ^0.4.19;\n\nimport \"./athletefeeding.sol\";\n\ncontract AthleteHelper is AthleteFeeding {\n\n  uint levelUpFee = 0.001 ether;\n\n  modifier aboveLevel(uint _level, uint _athleteId) {\n    require(athletes[_athleteId].level >= _level);\n    _;\n  }\n\n  function withdraw() external onlyOwner {\n    owner.transfer(this.balance);\n  }\n\n  function setLevelUpFee(uint _fee) external onlyOwner {\n    levelUpFee = _fee;\n  }\n\n  function levelUp(uint _athleteId) external payable {\n    require(msg.value == levelUpFee);\n    athletes[_athleteId].level++;\n  }\n\n  function changeName(uint _athleteId, string _newName) external aboveLevel(2, _athleteId) onlyOwnerOf(_athleteId) {\n    athletes[_athleteId].name = _newName;\n  }\n\n  function changeDna(uint _athleteId, uint _newDna) external aboveLevel(20, _athleteId) onlyOwnerOf(_athleteId) {\n    athletes[_athleteId].dna = _newDna;\n  }\n\n  function getAthletesByOwner(address _owner) external view returns(uint[]) {\n    uint[] memory result = new uint[](ownerAthleteCount[_owner]);\n    uint counter = 0;\n    for (uint i = 0; i < athletes.length; i++) {\n      if (athleteToOwner[i] == _owner) {\n        result[counter] = i;\n        counter++;\n      }\n    }\n    return result;\n  }\n\n}\n",
  "sourcePath": "/Users/danieltrinh/Desktop/BitFantasy/EAS499Development/cryptoathletes/contracts/athletehelper.sol",
  "compiler": {
    "name": "solc",
    "version": "0.4.19+commit.c4cbbb05.Emscripten.clang"
  },
  "schemaVersion": "2.0.0",
  "updatedAt": "2018-04-25T02:19:35.349Z"
}