{
  "contractName": "AthleteFeeding",
  "abi": [
    {
      "constant": true,
      "inputs": [
        {
          "name": "",
          "type": "uint256"
        }
      ],
      "name": "athleteToOwner",
      "outputs": [
        {
          "name": "",
          "type": "address"
        }
      ],
      "payable": false,
      "stateMutability": "view",
      "type": "function"
    },
    {
      "constant": true,
      "inputs": [],
      "name": "owner",
      "outputs": [
        {
          "name": "",
          "type": "address"
        }
      ],
      "payable": false,
      "stateMutability": "view",
      "type": "function"
    },
    {
      "constant": false,
      "inputs": [
        {
          "name": "_name",
          "type": "string"
        }
      ],
      "name": "createRandomAthlete",
      "outputs": [],
      "payable": false,
      "stateMutability": "nonpayable",
      "type": "function"
    },
    {
      "constant": false,
      "inputs": [
        {
          "name": "_name",
          "type": "string"
        },
        {
          "name": "_name2",
          "type": "string"
        }
      ],
      "name": "buyPackAthletes",
      "outputs": [],
      "payable": true,
      "stateMutability": "payable",
      "type": "function"
    },
    {
      "constant": true,
      "inputs": [
        {
          "name": "",
          "type": "address"
        }
      ],
      "name": "ownerAthleteCount",
      "outputs": [
        {
          "name": "",
          "type": "uint256"
        }
      ],
      "payable": false,
      "stateMutability": "view",
      "type": "function"
    },
    {
      "constant": true,
      "inputs": [
        {
          "name": "",
          "type": "uint256"
        }
      ],
      "name": "athletes",
      "outputs": [
        {
          "name": "name",
          "type": "string"
        },
        {
          "name": "dna",
          "type": "uint256"
        },
        {
          "name": "level",
          "type": "uint32"
        },
        {
          "name": "readyTime",
          "type": "uint32"
        },
        {
          "name": "winCount",
          "type": "uint16"
        },
        {
          "name": "lossCount",
          "type": "uint16"
        },
        {
          "name": "offensiveRating",
          "type": "uint16"
        },
        {
          "name": "defensiveRating",
          "type": "uint16"
        }
      ],
      "payable": false,
      "stateMutability": "view",
      "type": "function"
    },
    {
      "constant": false,
      "inputs": [
        {
          "name": "newOwner",
          "type": "address"
        }
      ],
      "name": "transferOwnership",
      "outputs": [],
      "payable": false,
      "stateMutability": "nonpayable",
      "type": "function"
    },
    {
      "anonymous": false,
      "inputs": [
        {
          "indexed": false,
          "name": "athleteId",
          "type": "uint256"
        },
        {
          "indexed": false,
          "name": "name",
          "type": "string"
        },
        {
          "indexed": false,
          "name": "dna",
          "type": "uint256"
        }
      ],
      "name": "NewAthlete",
      "type": "event"
    },
    {
      "anonymous": false,
      "inputs": [
        {
          "indexed": true,
          "name": "previousOwner",
          "type": "address"
        },
        {
          "indexed": true,
          "name": "newOwner",
          "type": "address"
        }
      ],
      "name": "OwnershipTransferred",
      "type": "event"
    },
    {
      "constant": false,
      "inputs": [
        {
          "name": "_address",
          "type": "address"
        }
      ],
      "name": "setKittyContractAddress",
      "outputs": [],
      "payable": false,
      "stateMutability": "nonpayable",
      "type": "function"
    },
    {
      "constant": false,
      "inputs": [
        {
          "name": "_athleteId",
          "type": "uint256"
        },
        {
          "name": "_kittyId",
          "type": "uint256"
        }
      ],
      "name": "feedOnKitty",
      "outputs": [],
      "payable": false,
      "stateMutability": "nonpayable",
      "type": "function"
    }
  ],
  "bytecode": "0x60606040526010600155600154600a0a6002556201518060035567011c37937e080000600455336000806101000a81548173ffffffffffffffffffffffffffffffffffffffff021916908373ffffffffffffffffffffffffffffffffffffffff1602179055506111af806100746000396000f300606060405260043610610099576000357c0100000000000000000000000000000000000000000000000000000000900463ffffffff16806317a7f4cc1461009e57806322a1bf65146100ca5780635f4623f11461012d5780638da5cb5b14610166578063b2cb2466146101bb578063dfe242b114610218578063e2acabfd1461024f578063edef8b831461029c578063f2fde38b146103be575b600080fd5b34156100a957600080fd5b6100c860048080359060200190919080359060200190919050506103f7565b005b34156100d557600080fd5b6100eb6004808035906020019091905050610564565b604051808273ffffffffffffffffffffffffffffffffffffffff1673ffffffffffffffffffffffffffffffffffffffff16815260200191505060405180910390f35b341561013857600080fd5b610164600480803573ffffffffffffffffffffffffffffffffffffffff16906020019091905050610597565b005b341561017157600080fd5b610179610636565b604051808273ffffffffffffffffffffffffffffffffffffffff1673ffffffffffffffffffffffffffffffffffffffff16815260200191505060405180910390f35b34156101c657600080fd5b610216600480803590602001908201803590602001908080601f0160208091040260200160405190810160405280939291908181526020018383808284378201915050505050509190505061065b565b005b61024d6004808035906020019082018035906020019190919290803590602001908201803590602001919091929050506106d4565b005b341561025a57600080fd5b610286600480803573ffffffffffffffffffffffffffffffffffffffff16906020019091905050610803565b6040518082815260200191505060405180910390f35b34156102a757600080fd5b6102bd600480803590602001909190505061081b565b60405180806020018981526020018863ffffffff1663ffffffff1681526020018763ffffffff1663ffffffff1681526020018661ffff1661ffff1681526020018561ffff1661ffff1681526020018461ffff1661ffff1681526020018361ffff1661ffff16815260200182810382528a8181546001816001161561010002031660029004815260200191508054600181600116156101000203166002900480156103a85780601f1061037d576101008083540402835291602001916103a8565b820191906000526020600020905b81548152906001019060200180831161038b57829003601f168201915b5050995050505050505050505060405180910390f35b34156103c957600080fd5b6103f5600480803573ffffffffffffffffffffffffffffffffffffffff169060200190919050506108c9565b005b6000600860009054906101000a900473ffffffffffffffffffffffffffffffffffffffff1673ffffffffffffffffffffffffffffffffffffffff1663e98b7f4d83600060405161014001526040518263ffffffff167c01000000000000000000000000000000000000000000000000000000000281526004018082815260200191505061014060405180830381600087803b151561049457600080fd5b6102c65a03f115156104a557600080fd5b505050604051805190602001805190602001805190602001805190602001805190602001805190602001805190602001805190602001805190602001805190509091929394959697985090919293949596975090919293949596509091929394955090919293945090919293509091925090915090508091505061055f83826040805190810160405280600581526020017f6b69747479000000000000000000000000000000000000000000000000000000815250610a1e565b505050565b60066020528060005260406000206000915054906101000a900473ffffffffffffffffffffffffffffffffffffffff1681565b6000809054906101000a900473ffffffffffffffffffffffffffffffffffffffff1673ffffffffffffffffffffffffffffffffffffffff163373ffffffffffffffffffffffffffffffffffffffff161415156105f257600080fd5b80600860006101000a81548173ffffffffffffffffffffffffffffffffffffffff021916908373ffffffffffffffffffffffffffffffffffffffff16021790555050565b6000809054906101000a900473ffffffffffffffffffffffffffffffffffffffff1681565b600080600760003373ffffffffffffffffffffffffffffffffffffffff1673ffffffffffffffffffffffffffffffffffffffff168152602001908152602001600020541415156106aa57600080fd5b6106b382610bf3565b90506064818115156106c157fe5b06810390506106d08282610c75565b5050565b600080600454341415156106e757600080fd5b61072286868080601f016020809104026020016040519081016040528093929190818152602001838380828437820191505050505050610bf3565b915060648281151561073057fe5b068203915061077186868080601f01602080910402602001604051908101604052809392919081815260200183838082843782019150505050505083610c75565b6107ac84848080601f016020809104026020016040519081016040528093929190818152602001838380828437820191505050505050610bf3565b90506064818115156107ba57fe5b06810390506107fb84848080601f01602080910402602001604051908101604052809392919081815260200183838082843782019150505050505082610c75565b505050505050565b60076020528060005260406000206000915090505481565b60058181548110151561082a57fe5b906000526020600020906003020160009150905080600001908060010154908060020160009054906101000a900463ffffffff16908060020160049054906101000a900463ffffffff16908060020160089054906101000a900461ffff169080600201600a9054906101000a900461ffff169080600201600c9054906101000a900461ffff169080600201600e9054906101000a900461ffff16905088565b6000809054906101000a900473ffffffffffffffffffffffffffffffffffffffff1673ffffffffffffffffffffffffffffffffffffffff163373ffffffffffffffffffffffffffffffffffffffff1614151561092457600080fd5b600073ffffffffffffffffffffffffffffffffffffffff168173ffffffffffffffffffffffffffffffffffffffff161415151561096057600080fd5b8073ffffffffffffffffffffffffffffffffffffffff166000809054906101000a900473ffffffffffffffffffffffffffffffffffffffff1673ffffffffffffffffffffffffffffffffffffffff167f8be0079c531659141344cd1fd0a4f28419497f9722a3daafe3b4186f6b6457e060405160405180910390a3806000806101000a81548173ffffffffffffffffffffffffffffffffffffffff021916908373ffffffffffffffffffffffffffffffffffffffff16021790555050565b600080846006600082815260200190815260200160002060009054906101000a900473ffffffffffffffffffffffffffffffffffffffff1673ffffffffffffffffffffffffffffffffffffffff163373ffffffffffffffffffffffffffffffffffffffff16141515610a8f57600080fd5b600586815481101515610a9e57fe5b90600052602060002090600302019250610ab783610f5a565b1515610ac257600080fd5b60025485811515610acf57fe5b069450600285846001015401811515610ae457fe5b04915060405180807f6b697474790000000000000000000000000000000000000000000000000000008152506005019050604051809103902060001916846040518082805190602001908083835b602083101515610b575780518252602082019150602081019050602083039250610b32565b6001836020036101000a0380198251168184511680821785525050505050509050019150506040518091039020600019161415610ba3576063606483811515610b9c57fe5b0683030191505b610be26040805190810160405280600681526020017f4e6f4e616d65000000000000000000000000000000000000000000000000000081525083610c75565b610beb83610f81565b505050505050565b600080826040518082805190602001908083835b602083101515610c2c5780518252602082019150602081019050602083039250610c07565b6001836020036101000a038019825116818451168082178552505050505050905001915050604051809103902060019004905060025481811515610c6c57fe5b06915050919050565b6000600160058054806001018281610c8d9190610fab565b9160005260206000209060030201600061010060405190810160405280888152602001878152602001600163ffffffff168152602001600354420163ffffffff168152602001600061ffff168152602001600061ffff168152602001603261ffff168152602001601e61ffff1681525090919091506000820151816000019080519060200190610d1e929190610fdd565b506020820151816001015560408201518160020160006101000a81548163ffffffff021916908363ffffffff16021790555060608201518160020160046101000a81548163ffffffff021916908363ffffffff16021790555060808201518160020160086101000a81548161ffff021916908361ffff16021790555060a082015181600201600a6101000a81548161ffff021916908361ffff16021790555060c082015181600201600c6101000a81548161ffff021916908361ffff16021790555060e082015181600201600e6101000a81548161ffff021916908361ffff1602179055505050039050336006600083815260200190815260200160002060006101000a81548173ffffffffffffffffffffffffffffffffffffffff021916908373ffffffffffffffffffffffffffffffffffffffff160217905550600760003373ffffffffffffffffffffffffffffffffffffffff1673ffffffffffffffffffffffffffffffffffffffff168152602001908152602001600020600081548092919060010191905055507f071c0343a2fb36c7d7178d42917b7a919b8098773661711cb31bb4255c26ec838184846040518084815260200180602001838152602001828103825284818151815260200191508051906020019080838360005b83811015610f19578082015181840152602081019050610efe565b50505050905090810190601f168015610f465780820380516001836020036101000a031916815260200191505b5094505050505060405180910390a1505050565b6000428260020160049054906101000a900463ffffffff1663ffffffff1611159050919050565b60035442018160020160046101000a81548163ffffffff021916908363ffffffff16021790555050565b815481835581811511610fd857600302816003028360005260206000209182019101610fd7919061105d565b5b505050565b828054600181600116156101000203166002900490600052602060002090601f016020900481019282601f1061101e57805160ff191683800117855561104c565b8280016001018555821561104c579182015b8281111561104b578251825591602001919060010190611030565b5b5090506110599190611116565b5090565b61111391905b8082111561110f576000808201600061107c919061113b565b60018201600090556002820160006101000a81549063ffffffff02191690556002820160046101000a81549063ffffffff02191690556002820160086101000a81549061ffff021916905560028201600a6101000a81549061ffff021916905560028201600c6101000a81549061ffff021916905560028201600e6101000a81549061ffff021916905550600301611063565b5090565b90565b61113891905b8082111561113457600081600090555060010161111c565b5090565b90565b50805460018160011615610100020316600290046000825580601f106111615750611180565b601f01602090049060005260206000209081019061117f9190611116565b5b505600a165627a7a7230582085b7908f7e65717b78cedf3d49f493d444f72fea53b07f716bd7255d18cc16860029",
  "source": "pragma solidity ^0.4.19;\n\nimport \"./athletefactory.sol\";\n\ncontract KittyInterface {\n  function getKitty(uint256 _id) external view returns (\n    bool isGestating,\n    bool isReady,\n    uint256 cooldownIndex,\n    uint256 nextActionAt,\n    uint256 siringWithId,\n    uint256 birthTime,\n    uint256 matronId,\n    uint256 sireId,\n    uint256 generation,\n    uint256 genes\n  );\n}\n\ncontract AthleteFeeding is AthleteFactory {\n\n  KittyInterface kittyContract;\n\n  modifier onlyOwnerOf(uint _athleteId) {\n    require(msg.sender == athleteToOwner[_athleteId]);\n    _;\n  }\n\n  function setKittyContractAddress(address _address) external onlyOwner {\n    kittyContract = KittyInterface(_address);\n  }\n\n  function _triggerCooldown(Athlete storage _athlete) internal {\n    _athlete.readyTime = uint32(now + cooldownTime);\n  }\n\n  function _isReady(Athlete storage _athlete) internal view returns (bool) {\n      return (_athlete.readyTime <= now);\n  }\n\n  function feedAndMultiply(uint _athleteId, uint _targetDna, string _species) internal onlyOwnerOf(_athleteId) {\n    Athlete storage myAthlete = athletes[_athleteId];\n    require(_isReady(myAthlete));\n    _targetDna = _targetDna % dnaModulus;\n    uint newDna = (myAthlete.dna + _targetDna) / 2;\n    if (keccak256(_species) == keccak256(\"kitty\")) {\n      newDna = newDna - newDna % 100 + 99;\n    }\n    _createAthlete(\"NoName\", newDna);\n    _triggerCooldown(myAthlete);\n  }\n\n  function feedOnKitty(uint _athleteId, uint _kittyId) public {\n    uint kittyDna;\n    (,,,,,,,,,kittyDna) = kittyContract.getKitty(_kittyId);\n    feedAndMultiply(_athleteId, kittyDna, \"kitty\");\n  }\n}\n",
  "sourcePath": "/Users/danieltrinh/Desktop/BitFantasy/EAS499Development/cryptoathletes/contracts/athletefeeding.sol",
  "compiler": {
    "name": "solc",
    "version": "0.4.19+commit.c4cbbb05.Emscripten.clang"
  },
  "schemaVersion": "2.0.0",
  "updatedAt": "2018-04-25T02:19:35.342Z"
}